:020000022000DC
:1060000000000120B5620200DD620200DF620200D2
:10601000E1620200E3620200E562020000000000AB
:10602000000000000000000000000000A97903004B
:10603000E962020000000000C9790300ED6202007D
:1060400055890200EF6202004DA10200E1A90200A1
:10605000A9A50200EF6202005D9E0200A5A1020058
:1060600015B202006DB20200C5B20200EF6202007A
:10607000EF620200EF620200EF620200EF620200D4
:10608000EF620200D57A0300EF620200EF620200C5
:10609000EF620200EF620200E9780300EF620200A3
:1060A000EF620200EF6202001DB3020075B302004E
:1060B000EF620200EF62020000000000000000003A
:1060C000EF620200EF620200EF620200EF62020084
:1060D000EF620200EF620200EF62020000000000C7
:1060E00000000000000000000000000000000000B0
:1060F00000000000000000000000000000000000A0
:10610000000000000000000000000000000000008F
:10611000000000000000000000000000000000007F
:10612000000000000000000000000000000000006F
:10613000000000000000000000000000000000005F
:10614000000000000000000000000000000000004F
:10615000000000000000000000000000000000003F
:10616000000000000000000000000000000000002F
:10617000000000000000000000000000000000001F
:10618000000000000000000000000000000000000F
:1061900000000000000000000000000000000000FF
:1061A00000000000000000000000000000000000EF
:1061B00000000000000000000000000000000000DF
:1061C00000000000000000000000000000000000CF
:1061D00000000000000000000000000000000000BF
:1061E00000000000000000000000000000000000AF
:1061F000000000000000000000000000000000009F
:1062000010B5054C237833B9044B13B10448AFF3F0
:1062100000800123237010BD682B002000000000C7
:1062200020BD050008B5034B1BB103490348AFF37C
:10623000008008BD000000006C2B002020BD050080
:10624000154B002B08BF134B9D46A3F5803A002148
:106250008B460F461348144A121A2FF09FFD0F4B1E
:10626000002B00D098470E4B002B00D09847002001
:10627000002104000D000D48002802D00C48AFF3A7
:1062800000802FF02DFD200029000FF027FA2FF0BD
:1062900013FD00BF00000800000001200000000006
:1062A00000000000682B002044980020000000003F
:1062B000000000000649074A074B9B1A03DD043B18
:1062C000C858D050FBDC00F013F8FFF7B9FF00000E
:1062D00008BF050090220020682B0020FEE7FEE7A3
:1062E000FEE7FEE7FEE7FEE7FEE7FEE7FEE7FEE786
:1062F00030B4904B1B78062B20D08F4B1B68062B9D
:1063000000F085808D4AD2F8883043F47003C2F8DB
:106310008830BFF34F8FBFF36F8F4FF01023D3F848
:106320000022002AC0F28681D3F80432002BC0F28A
:106330008181834B834A1A6030BC7047824B1B6853
:106340001D07DAD1814B1B6803F0F002302A00F000
:106350009E8003F0E003402B00F099807B4B1B688C
:1063600003F0F003302B00F0B980784B1B6803F08A
:10637000F002302A56D003F0E003402B52D0734B8A
:106380001B6803F0F003302B00F0B6806F4B1B68E6
:1063900003F0F002302A66D003F0E003402B62D015
:1063A0006A4B1B6803F0F003302B00F0B580674B9D
:1063B0001B6803F0F003302B79D0644B1B6803F0AB
:1063C000F003502B00F0E480604B1B6803F0F002F8
:1063D000302A37D003F0E003402B33D05B4B1B68EF
:1063E00003F0F002302A03D003F0E003402B84D105
:1063F0004FF08043D3F80024D20744BF6FF001026E
:10640000C3F800244C4B1B68062B7FF47BAF504B2A
:106410001B68062B7FF476AF4E4A136843F4806303
:1064200013606FE74C4B434A1B6812784B49C3F328
:106430004233062A0B6048D1434B1B6819077FF48F
:106440005CAF9CE7464A3B4B12681B78454902F01B
:106450004F02062B0A607FF450AF3B4B1B681907B5
:106460007FF44BAFBAE74FF080430022C3F80C2112
:10647000C3F81021C3F838252E4B1B78062B7FF468
:106480003CAF314B1B681B077FF437AF88E7364BB7
:10649000284A1B6812783549C3F30423062A0B6087
:1064A000EAD1294B1B681C077FF427AF56E7304C15
:1064B000204A304912783048304B052525600125A7
:1064C0000D6000243F2104601960062A7FF415AF97
:1064D0001D4B1B681C077FF410AF6EE7154B284A55
:1064E0001B7828491160062B7FF407AF164B1B68F9
:1064F00018077FF402AF38E723490E4BCA681B78B0
:1065000022F08072062BCA607FF4F7AE0E4B1B6838
:106510001A077FF4F2AE39E7064B1C4A1B780321B9
:10652000062B11607FF4E9AE074B1B681D077FF453
:10653000E4AE3CE7E00F00F03001001000ED00E0B9
:10654000902200200090D003E40F00F0E80F00F04C
:10655000340100103C170040440200103C0500408C
:1065600058020010E40E00402403001040350140A2
:1065700010560040885600401856004014560040FF
:1065800074C007400DF0ADBAF0ED00E0A00500408A
:106590004FF08053404AD3F80414C2F82015D3F8C2
:1065A0000814C2F82415D3F80C14C2F82815D3F82F
:1065B0001014C2F82C15D3F81414C2F83015D3F8FF
:1065C0001814C2F83415D3F81C14C2F84015D3F8C7
:1065D0002014C2F84415D3F82414C2F84815D3F88F
:1065E0002814C2F84C15D3F82C14C2F85015D3F85F
:1065F0003014C2F85415D3F83414C2F86015D3F827
:106600003814C2F86415D3F83C14C2F86815D3F8EE
:1066100040142248C2F86C15D3F844140378C2F829
:106620007015062B7FF469AE1D4B1B6818077FF4AD
:1066300064AEC9E61B4B0122C3F80425D3F800243D
:10664000002AFBD04FF0102315221649C3F8002270
:10665000D1F80034002BFBD04FF010221521114B44
:10666000C2F80412D3F80024002AFBD000220D49FE
:10667000C3F80425D1F80034002BFBD0BFF34F8FB3
:1066800009490A4BCA6802F4E0621343CB60BFF3C6
:106690004F8F00BFFDE700BF00C00040E00F00F0DB
:1066A000E40F00F000E0014000ED00E00400FA0516
:1066B00050E8002F0B4640E8003C9CF0000FF7D15B
:1066C0001046704750E8002F42EA010340E8003CC2
:1066D0009CF0000FF6D11046704700BF50E8003F15
:1066E00043EA010240E8002C9CF0000FF6D110466E
:1066F000704700BF50E8003F03EA010240E8002C69
:106700009CF0000FF6D11046704700BF50E8002FF4
:1067100002EB010340E8003C9CF0000FF6D110466C
:10672000704700BF50E8003F03EB010240E8002C37
:106730009CF0000FF6D11046704700BF50E8003FB4
:10674000A3EB010240E8002C9CF0000FF6D11046AC
:10675000704700BF012350E800CF4CEA030240E835
:10676000002191F0000FF6D160467047012350E8F8
:10677000002F42EA030C40E800C191F0000FF6D16F
:1067800060467047002350E800CF0CEA030240E85F
:10679000002191F0000FF6D160467047002350E8C9
:1067A000002F02EA030C40E800C191F0000FF6D17F
:1067B0006046704782680023936082681361826834
:1067C00053618268D3608268536082681360704747
:1067D0002DE9F04105460F46904680684BBBD0E955
:1067E00003206E68141A711C8C421DD000EA060347
:1067F00002EA06049C423CBF83190133D8F800002A
:106800002CBF0B1B9B1A834228BF0346C8F80030DD
:106810002B6823443B60AA68D8F80010D3680B4467
:10682000D3600020BDE8F081C8F800301846BDE80C
:10683000F081FFF78FFF044678B9D5E90163D3E90A
:106840000320711C131A8B42D0D1C8F80040A868ED
:10685000FFF7A4FF2046BDE8F0811120BDE8F081DC
:1068600038B5D0E901342569A26801332B449B1A5D
:106870008B420CD30A44A26083689A68DA6080680D
:10688000FFF780FF00280CBF0820002038BD04203F
:1068900038BD00BF10B584682269A3689B1A8B427B
:1068A0000AD30A44226183681A695A6180680430F5
:1068B000FFF774FF002010BD042010BDB8B130B444
:1068C000D0E90112521A0468D2B2531E2160DBB221
:1068D00042B101680A685C1E551C0D601370E3B27A
:1068E000FF2BF6D103680020187130BC70470E20D2
:1068F000704700BFF0B583B002AB002503F8015D1F
:106900000446184602F0F4F8D4E900311A688A42C5
:1069100010D9511E19602168A3680F6812F8015C34
:106920000A79268AE068DB1BDBB29A4206FB050582
:1069300038BF0B719DF8070002F000F9284603B03C
:10694000F0BD00BF30B583B002AB002203F8012DCB
:10695000054618460C4602F0CBF82A681368591C05
:106960001160E9682A8A641AB4FBF2F41C709DF87D
:10697000070002F0E3F803B030BD00BFFFF79EBF91
:106980002DE9F041058ACE1C043D2E440746B6FB96
:10699000F5F6FFF7AFFF78B3F6B24FF48073013E20
:1069A0000446C5800760838027D08046002509E023
:1069B0006379AE4203F101036371C8F80000076018
:1069C00080461AD03846FFF795FF01350028EFD1F1
:1069D0006679721E14D02346013082421B68FBD1B7
:1069E0001F684EB1002523682146013538461C46F4
:1069F000FFF7A8FFAE42F6D100242046BDE8F081A3
:106A00002768EFE7F8B546790146701E11D00A46AF
:106A10000023013398421268FBD1176846B1002465
:106A20000D6801343846FFF78DFFA6422946F7D19D
:106A3000F8BD0F68F3E700BF04300121FFF772BE15
:106A4000F8B5012104460430FFF778FEC0B200B16A
:106A5000F8BD6679721E12D02346013082421B684F
:106A6000FBD11F68002EF3D0002523682146013595
:106A700038461C46FFF766FFAE42F6D1F8BD2768E0
:106A8000F2E700BF2DE9F843C788467907FB06F611
:106A9000043E02EB030C0446664503F10400154670
:106AA0008846B0FBF7F238BFF51A07FB120012B1A7
:106AB000013A2468FCD13E1AAE4228BF2E469DB151
:106AC0004FF000090430AD1B2044324608EB0901A9
:106AD0002FF059F9AF42B14424683E464FF0000010
:106AE00028BF2E46002DEDD1BDE8F8832DE9F843EF
:106AF000C7884679154607FB06F6043E05EB030CEE
:106B00001A1D664504468846B2FBF7F038BFF51AF1
:106B100007FB102110B101382468FCD17E1AAE4267
:106B200028BF2E469DB14FF0000904312144AD1B12
:106B3000324608EB09002FF026F9AF42B144246831
:106B40003E464FF0000128BF2E46002DEDD1BDE896
:106B5000F88300BF30B4184DA5F59472AB1ADB1062
:106B600003EBD3735B1002EBC30152F8333098424E
:106B700028BF0C4605D311E052F8333098420CD2AE
:106B800021468B1ADB1003EBD3735B108A4202EBB6
:106B9000C304F1D3094830BC70470D46984204D96C
:106BA00004F10802AA42D9D3F4E76068034B002835
:106BB00008BF1846EFE700BF888905004C8805002C
:106BC000826842B110B5044643690168006998477C
:106BD0000023A36010BD70470EB400B582B00399C6
:106BE00029B102AA04AB42F8043D00F0A9F802B0B2
:106BF0005DF804EB03B070472DE9F04F924683B087
:106C000051450F4605461E46DDE90CB2C0F09280A4
:106C10000B464FF00108B3FBFAF39A4508F101085F
:106C2000F9D9B04538BFB04612F00109A96802D1C0
:106C3000BBF1000F54D1012402E0013E0AFB04F431
:106C4000012EFAD8B7FBF4F08245F7D93B4E02E0AB
:106C5000A968B7FBF4F0335C2A680A2B04FB1077B1
:106C600002EB010E01F1010029D0A8608EF800307E
:106C7000D5E90131994202D32846FFF7A1FFB4FBC1
:106C8000FAF4002CE4D1B9F1000F15D0BBF1000FDC
:106C900012D0C34510D92024AB682A68591CA960BA
:106CA000D454D5E901329A420BF1FF3B14D2BBF127
:106CB000000F01D0C345EFD103B0BDE8F08FA8604D
:106CC0004FF00D005054D5E9011088421DD22968BB
:106CD00001EB000E0130C8E72846FFF771FFE6E739
:106CE000930722D42024C345A5D92B684A1CAA6047
:106CF0005C54D5E9013199420BF1FF3B10D2BBF155
:106D0000000F98D0C345F0D195E728460193FFF7CF
:106D100057FFAA682968019B501C01EB020EA4E7EB
:106D20002846FFF74DFFA968E9E7002E0CBF302485
:106D30002024D8E74FF0010873E700BF748D0500E9
:106D4000002900F0B9822DE9F04F054687B0914641
:106D50000C460E78DFF8C8A64FF00D0B13E0AB68B9
:106D600028680A2E03F1010200EB030100F04B82B8
:106D7000AA600E70D5E901329A4280F01B81267814
:106D8000002E00F01E810134002E00F01A81252E05
:106D9000E5D12346002713F8012B2D2A00F0E380CC
:106DA000302A00F0E4802B2A00F0D4802A2A00F058
:106DB0000D81A2F13006F1B2092903D97DE2A1F1DA
:106DC00030060346184606EB860110F8012BA2F1A7
:106DD0003004092C02EB4101F1D92E2A00F0028186
:106DE0004FF00008013301E013F8012B02F0FB0122
:106DF00068291C46F8D0253A532AC0D801A353F875
:106E000022F000BFEF7102007F6D02007F6D020073
:106E10007F6D02007F6D02007F6D02007F6D0200BA
:106E20007F6D02007F6D02007F6D02007F6D0200AA
:106E30007F6D02007F6D02007F6D02007F6D02009A
:106E40007F6D02007F6D02007F6D02007F6D02008A
:106E50007F6D02007F6D02007F6D02007F6D02007A
:106E60007F6D02007F6D02007F6D02007F6D02006A
:106E70007F6D02007F6D02007F6D02007F6D02005A
:106E80007F6D02007F6D02007F6D02007F6D02004A
:106E90007F6D02007F6D02007F6D02007F6D02003A
:106EA0007F6D02007F6D02007F6D02007F6D02002A
:106EB0007F6D02007F6D02007F6D02007F6D02001A
:106EC0007F6D02007F6D02007F6D02007F6D02000A
:106ED000D37102007F6D02007F6D02007F6D0200A2
:106EE0007F6D02007F6D02007F6D02007F6D0200EA
:106EF0007F6D02007F6D02007F6D0200776F0200E0
:106F0000597102007F6D02007F6D02007F6D0200EB
:106F10007F6D0200597102007F6D02007F6D0200DB
:106F20007F6D02007F6D02007F6D02007F6D0200A9
:106F3000C17002007F6D02007F6D02003970020097
:106F40007F6D02001D7002007F6D02007F6D0200E8
:106F5000D371020047F004071C46234613F8012BA7
:106F60002D2A7FF41DAF47F001071C46F5E747F0D7
:106F700002071C46F1E7D9F800301A1DC9F80020B5
:106F80001E78AB680A2E0CD12A68591CA96002F839
:106F900003B0D5E90123934203D32846FFF710FE3F
:106FA000AB682A68591CA960D654D5E901329A42C7
:106FB000FFF4E5AE2846FFF703FE2678002E7FF4A7
:106FC000E2AE2B7B23BB07B0BDE8F08FD9F80020E1
:106FD000111DC9F80010166862782E2A04F102000B
:106FE0007FF4FEAE5A78A2F13003092B00F2BD8186
:106FF0004FF0000808EB880802EB480810F8012F52
:10700000A2F13003092BA8F13008F3D90346E9E6D1
:10701000284607B0BDE8F04FFFF7D2BDD9F80030E1
:107020001A1DC9F8002019680197434600960A22E4
:107030002846FFF7E1FDA2E6D9F800301A1DC9F88D
:107040000020D3F80080FB0700F1E880B8F1000FC2
:1070500000F0A18140462FF04BFB0746BE4215D9F8
:10706000A6B1202100E08EB1AA682B68501CA86050
:107070009954D5E901329A4206F1FF3604D32846E5
:107080000391FFF79DFD0399BE42ECD108F1FF3853
:1070900018F8016F002E3FF472AEAB6828680A2E14
:1070A00003F1010200EB030100F09081AA600E7071
:1070B000D5E901329A42EBD32846FFF781FDE7E795
:1070C000D9F80020131DC9F80030AB68296817688B
:1070D000581C3022A860CA54D5E90123934280F09D
:1070E000E6802A68581C7821A860D154D5E901238C
:1070F000934280F0D7800F2F03D93A4612090F2A06
:10710000FCD84FF080560DE0AA6081F80080D5E9E8
:1071100001329A4202D32846FFF752FD36093FF466
:107120002EAEAB68B7FBF6F21AF802802868B8F109
:107130000A0F06FB127700EB030103F10102E3D112
:10714000AA6000F803B0D5E901329A4280F0498183
:107150002B6899180132D7E7D9F800301A1DC9F801
:107160000020196881EAE173A3EBE173092B40F376
:107170000E81AA480122A0FB03C3DB08092B02F100
:107180000102F8DC4245134638BF4346039307F03B
:107190000203002E40F09580002B00F0B780B8F17C
:1071A000000F00F0F680F80740F1B0800029C0F22F
:1071B000FF807A0700F1C88007F00303022B00F07C
:1071C000A780CDE9006743460A222846FFF714FD51
:1071D000D5E5D9F800301A1DC9F8002019680197C3
:1071E0004346009610222846FFF706FDC7E5AB6828
:1071F0002A68581C2521A860D154D5E901329A4249
:10720000FFF4BDADD6E6AA6000F803B0D5E90132BF
:107210009A423FD2296811440132A9E54146A1EBC7
:10722000080311F8017BD7B1AB68D5F800C00A2F6D
:1072300003F101020CEB030000F0AF80AA600770BD
:10724000D5E901329A42EAD328460391FFF7B8FC08
:107250000399A1EB080311F8017B002FE4D19E42B2
:107260007FF68DAD202702E0002E3FF488ADA9689F
:107270002A68481CA8605754D5E90121914206F1BB
:10728000FF3604D328460393FFF79AFC039BB342CF
:10729000EAD174E52846FFF793FCAB6829685A1CCD
:1072A000194465E52846FFF78BFCAB6823E72846C1
:1072B000FFF786FCAB6814E77047184600262346A4
:1072C0008BE5002920DB7A071ED41BB1B8F1000F33
:1072D0003FF46CAFF8073FF569AFBEB1039BB34213
:1072E000BFF464AF2023AA68501CA86028688354A8
:1072F000D5E90102824206F1FF3640D236B1039A47
:10730000B242F0D1164651E7013EDEE700264DE7D6
:10731000B8F1000F7FF455AF002E6AD0039BB34243
:10732000BFF44FAF3023AA68501CA860286883546C
:10733000D5E90102824206F1FF3618D2002E58D05C
:10734000039AB242EFD13CE7AA68531CAB602B68AA
:107350002B209854D5E901329A42FFF42DAF2846EC
:107360000491FFF72DFC049926E7034638E52846EB
:10737000CDE90413FFF724FCDDE90413DEE728461A
:10738000CDE90413FFF71CFCDDE90413B6E7012285
:10739000F8E646460AE7474660E6AA600CF803B0FE
:1073A000D5E901329A4226D22B689818013245E776
:1073B000AA68531CAB602B682D209854D5E9013284
:1073C0009A42C1F10001FFF4F7AEC8E7AA6000F8E5
:1073D00003B0D5E901329A4217D22968114401322B
:1073E00064E62846FFF7ECFBA9682B684A1C1944A1
:1073F0008AE60026E5E628460391FFF7E1FBA86848
:107400002B680399421C184418E72846FFF7D8FB5D
:10741000AB6829685A1C194448E600BFCDCCCCCCD7
:10742000748D05002DE9F04784B01D460C9C0023A7
:1074300094F80C802373EB8881460E461746002B88
:1074400040D1297A05290ED06B7AA88873BB404BAE
:1074500053F821A0002100F0C3F9524603463D49EC
:107460002046FFF7B9FB062F09D8DFE807F0046ACA
:107470004249525D330049462046FFF7ADFB2B7A67
:10748000052B05D06B7A5BB933492046FFF7A4FB87
:107490002046FFF795FB84F80C8004B0BDE8F08728
:1074A0002E4A2F492046FFF797FBEDE700F0C4F97D
:1074B0002C4B2B4953F820202046FFF78DFB297ACF
:1074C000A888C4E7254A00922749284A2046FFF7A2
:1074D00083FBB6E7D6E90410D6E900230390D6E98A
:1074E00002070291CDE9000749462046FFF774FBE9
:1074F000C5E74946D6E900232046FFF76DFBBEE706
:10750000B168D6E90023204600914946FFF764FBA5
:10751000B5E7D6E90201D6E900230191009049467A
:107520002046FFF759FBAAE7D6E90371B068D6E910
:1075300000230291CDE9000749462046FFF74CFBA6
:107540009DE7326849462046FFF746FB97E700BFB4
:10755000F48D0500E48D0500F08D0500DC8D05003F
:10756000DCA20500848D0500C48D0500BC8D0500DE
:10757000082900D970472DE9F04F1D469046002399
:107580002A7B2B7385B0B8F80630039207460E4667
:10759000002B7BD198F80810052911D098F80930F4
:1075A000B8F80400002B63D13C4B53F82140002174
:1075B00000F016F92246034639492846FFF70CFB2E
:1075C000DFF8FCB0DFF8FC90002405E03A5D013400
:1075D000FFF702FB082C09D0A64249462846F5D8F9
:1075E00059460134FFF7F8FA082CF5D12D49DFF898
:1075F000D8B0DFF8D8902846FFF7EEFA00240CE068
:1076000017F804A0BAF17E0F23D92E224946284646
:107610000134FFF7E1FA082C08D0A642F0D8594609
:1076200028460134FFF7D8FA082CF6D198F808302C
:10763000052B02D098F80930A3B91B492846FFF75B
:10764000CBFA2846FFF7BCFA039B2B7305B0BDE8C5
:10765000F08F2EF069FB50445246437813F0970F99
:10766000D3D0D3E7114A12492846FFF7B5FAE4E729
:1076700000F0E2F80F4B0E4953F820202846FFF7A0
:10768000ABFA98F80810B8F804008DE7074A0092A2
:1076900009490A4A2846FFF79FFA7BE7F48D05005F
:1076A000E48D0500B48D0500F08D0500DC8D05002E
:1076B000DCA20500848D0500C48D0500BC8D05008D
:1076C000B08D0500A88D050030AC0500B88D050013
:1076D000F0B5324C85B004F58360FFF747F804F24B
:1076E0001440FFF743F8D4E9013703EA0702D01C3E
:1076F00004EB800114F8200010F0040044D003F1E2
:10770000020C0E7806F00306012E654635D0022ED7
:1077100002F1030621D004EB86010028F1D104EB2D
:1077200082020133D26801923B4004EB830302F0F2
:107730000302012ADE6829D0022A23D1BDF80630CF
:107740009B090333360C05EB93051548FFF71AF830
:1077500000B16560304605B0F0BD4B880CEB93136B
:1077600007EA0302D11C03F1020C14F8210065465C
:1077700004EB810100F00400CFE70B88C3F383130F
:107780006344EDE70026E0E79D1CC8E7BDF8043040
:10779000C3F38313360C1D44D7E700BF542C0020DD
:1077A000683000200B4B0C4810B50022FF2401214B
:1077B0009C60C3F8182483F82014C3E90022C3F89E
:1077C0001424FFF7DBF8044610B90448FEF7F2FF73
:1077D000204610BD542C0020D0BD0500608E050051
:1077E00021B9124B03EBC00000687047104A0F49E3
:1077F000521AD20815D030B40E4D2B88834212D0C5
:10780000002303E035F82340844205D001339A4237
:10781000F8D1002030BC704701EBC300006830BCD9
:107820007047104670470846F8E700BFF8BD0500EE
:10783000F0BE0500682B0020094B013903EBC000A6
:1078400003290BD8DFE801F0020806040220704784
:1078500040797047007970470420704700207047D6
:10786000F8BD050030B5164B93F8203483B00446BC
:1078700003BB08B32EF03CFF02AA013042F8080D0A
:10788000012301A90F48FEF7A3FF0546A0B9214631
:10789000DDE900202EF077FADDE9002313440948E2
:1078A00003F8015C0099FEF7DBFF00990548FEF73D
:1078B000F1FF019803B030BD002003B030BD00BF20
:1078C000542C0020608E05002DE9F04383B002ABFC
:1078D000002203F8012DDFF8DC90074618468846A1
:1078E000D9F8084001F004F9D9E90132D9F800606B
:1078F000134401339B1B012B58D809F21C4501216D
:107900002846FEF70FFFFFF7E3FE01462846FEF785
:1079100009FFD9E90132D9F80010134401335B1A89
:10792000012BECD90A400332052302319DF80700F0
:1079300049F82230C9F8001001F000F900211C4874
:10794000FEF7B6FE80F31000731C234009EB83039F
:1079500000043440033440EA1740D86019F824305A
:1079600067F3C50309F8243039F824306FF389131D
:1079700029F8243059F8242068F39F221346012166
:1079800061F301036FF3820349F8242009F82430DE
:1079900099F820341BB906E000F00EF818B1D9E9C7
:1079A00000329A42F8D103B0BDE8F0833146B9E71E
:1079B00070300020542C00202DE9F047934C002318
:1079C00084B0C4F81834BFF34F8FD4E9015605EAE8
:1079D0000602D31C04EB830114F82330580719D591
:1079E00027680B7803F00303012B43D0022B03D14C
:1079F0004B88023505EB931506EA0502D4F8180406
:107A0000D31C04EB830128B9AF4239D914F82330D1
:107A10005B07E6D404EB82026B1CD2680192334010
:107A200004EB830302F00302DB680293022A05F1F0
:107A3000020700F08D80012A26D0D4F810543DB101
:107A40002B6828469B689847EB681D68002DF7D186
:107A50006F48704B7049C01AC008000440F0020023
:107A6000FFF732FFD4E90030C01A18BF012004B07C
:107A7000BDE8F0870B880235C3F383131D44BBE7D1
:107A8000676004B0BDE8F087BDF804206348C2F326
:107A90008313062B28BF062363F389120233990050
:107AA000ADF80420FEF76CFF80460028C5D0FEF735
:107AB000C3FF0023082201A94046FEF7E3FFBDF8FB
:107AC000043013F4707F00F09F806FF0010AAAEB7E
:107AD000050A082506EA070103312B46042204EBB8
:107AE00081014046FEF7CEFFBDF8043007F10109E1
:107AF0000AEB0902C3F3831393424F4605F10405D1
:107B0000E8D8D4F81834002B68D1D4F8105465B1F3
:107B1000EB685A7928464146002A5BD02B681B68DF
:107B20009847EB681D68002DF2D14046FEF788FFAC
:107B300004A8002300F80D3D00F0DAFFD4F8183453
:107B40000BB9C4F804909DF8030000F0F7FF89E733
:107B5000BDF8063031484FEA93194D46502D28BFE5
:107B6000502565F38F1305F10801ADF80630FEF7D7
:107B700007FF804600283FF460AF26EA070A0AF1B3
:107B8000010AFEF759FF4FEA8A0A0023082201A9D9
:107B90004046FEF777FF55452BD9EBB2BAF1000FFF
:107BA00020D006EA0701A3EB0A03033104EB8101AD
:107BB000DDB2524608234046FEF764FF2A460AF12A
:107BC000080317494046FEF75DFF09F1030907EB7B
:107BD000990996E71D68002D9AD1A6E74046FEF761
:107BE0002FFF3FE72A4608230D494046FEF74AFF8C
:107BF000EBE706EA0701033104EB81012A4608237B
:107C00004046FEF73FFFE0E7B9467AE7542C0020F4
:107C100038BE0500F8BD05006C8E0500D0BD05001E
:107C2000602C00202DE9F04782B002AB002403F85D
:107C3000014DDFF8ECA00746184691468846DAF871
:107C4000084000F055FFDAE90132DAF80060134429
:107C500001339B1B022B5ED80AF21C4501212846EA
:107C6000FEF760FDFFF734FD01462846FEF75AFD9A
:107C7000DAE90132DAF80010134401335B1A022BFF
:107C8000ECD90A400332033145239DF807004AF836
:107C90002230CAF8001000F051FFB31C23400AEB59
:107CA000830300211D48C3F80C90FEF701FD80F30B
:107CB0001000731C23400AEB830300043440033498
:107CC00040EA1740D8601AF8243067F3C5030AF871
:107CD00024303AF82430012161F389132AF8243042
:107CE0005AF8242068F39F22134661F301036FF3CF
:107CF00082034AF824200AF824309AF820341BB969
:107D000006E0FFF759FE18B1DAE900329A42F8D1DD
:107D100002B0BDE8F0873146B3E700BF7030002005
:107D2000542C00202DE9F04F83B002AD002405F85B
:107D3000014D3B4C8046284693469A468946A568A5
:107D400000F0D6FED4E90132276813440133DB1B6F
:107D5000032B63D804F21C4601213046FEF7E2FCF7
:107D6000FFF7B6FC01463046FEF7DCFCD4E90132F1
:107D70002168134401335B1A032BEDD90A40033207
:107D8000852344F8223004319DF80700216000F07B
:107D9000D5FEBA1CFB1C2A402B4004EB820204EBEC
:107DA000830300211F48C2F80CB0C3F80CA0FEF7F3
:107DB0007FFC80F310007B1C2B4004EB830300044A
:107DC0003D40033540EA1840D86014F8253068F388
:107DD000C50304F8253034F82530022262F38913F4
:107DE00024F8253054F8252069F39F2213460121F9
:107DF00061F301036FF3820344F8252004F8253072
:107E000094F820341BB906E0FFF7D6FD18B1D4E989
:107E100000329A42F8D103B0BDE8F08F3946ADE7A1
:107E2000542C0020703000202DE9F04F83B002AEBA
:107E3000002406F8014D3E4C8046304693469A4653
:107E4000A568894600F054FED4E90132276813443E
:107E50000133DB1B042B69D804F21C460121304698
:107E6000FEF760FCFFF734FC01463046FEF75AFC93
:107E7000D4E901322168134401335B1A042BEDD994
:107E80000A400332C52344F8223005319DF807002B
:107E9000216000F053FEB81CFA1C28402A403B1D0C
:107EA0002B4004EB800004EB820204EB8303C0F858
:107EB0000CB00021C2F80CA01E480C9ADA60FEF744
:107EC000F7FB80F310007B1C2B4004EB83030004C2
:107ED0003D40033540EA1840D86014F8253068F377
:107EE000C50304F8253034F82530032262F38913E2
:107EF00024F8253054F8252069F39F2213460121E8
:107F000061F301036FF3820344F8252004F8253060
:107F100094F820341BB906E0FFF74EFD18B1D4E900
:107F200000329A42F8D103B0BDE8F08F3946A7E796
:107F3000542C0020703000202DE9F04F87B006AEA1
:107F4000002406F8114D454C109F0497CDE90223FB
:107F5000804699463046119B05939246A5688B460C
:107F600000F0C6FDD4E90132276813440133DB1B5E
:107F7000052B70D804F21C4601213046FEF7D2FBD7
:107F8000FFF7A6FB01463046FEF7CCFBD4E90132F1
:107F90002168134401335B1A052BEDD90A400332E3
:107FA00040F2051344F8223006319DF807002160A5
:107FB000FE1C00F0C3FDB91C29402E403A1D2A408A
:107FC00004EB810104EB86067B1D2B4004EB82024F
:107FD000C1F80CA004EB8303C6F80C90109ED66089
:107FE0000021119A1E48DA60FEF762FB80F3100050
:107FF0007B1C2B4004EB830300043D40033540EA27
:108000001840D86014F8253068F3C50304F825300B
:1080100034F82530042262F3891324F8253054F80B
:1080200025206BF39F221346012161F301036FF3B7
:10803000820344F8252004F8253094F820341BB935
:1080400006E0FFF7B9FC18B1D4E900329A42F8D142
:1080500007B0BDE8F08F3946A0E700BF542C0020E0
:10806000703000202DE9F04F87B006AE002406F8EE
:10807000154DCDE90123484C109F03979946119B5C
:1080800004938046129B059330469246A5688B4622
:1080900000F02EFDD4E90132276813440133DB1BC5
:1080A000062B77D804F21C4601213046FEF73AFB36
:1080B000FFF70EFB01463046FEF734FBD4E90132F0
:1080C0002168134401335B1A062BEDD90A400332B1
:1080D00040F2451344F8223007319DF80300216037
:1080E0003E1D00F02BFDB91CF81C294028402E40F5
:1080F0007A1DBB1D2B402A4004EB810104EB80005C
:1081000004EB860604EB820204EB830C109BC1F89F
:108110000CA0C0F80C90F360119BD3600021129B5F
:108120001E48CCF80C30FEF7C3FA80F310007B1C1D
:108130002B4004EB830300043D40033540EA184024
:10814000D86014F8253068F3C50304F8253034F8F6
:108150002530052262F3891324F8253054F82520B0
:108160006BF39F221346012161F301036FF3820336
:1081700044F8252004F8253094F820341BB906E093
:10818000FFF71AFC18B1D4E900329A42F8D107B0CF
:10819000BDE8F08F394699E7542C0020703000205C
:1081A000044BD3E900239A4201D0FFF705BC00201D
:1081B000704700BF542C002030B4184DD5F810443F
:1081C00000215CB1E3681A798A4204D116E0DB68C9
:1081D0001A798A4212D01B68002BF8D1C368197132
:1081E000D5F8103493B1DA68C36812681A60D5F80C
:1081F0001034DB68186030BC0846704701310A292A
:10820000DFD14FF0FF31084630BC7047C5F810048D
:10821000C2681360084630BC704700BF542C002071
:1082200038B5094BD3F81044012583F820544CB1DC
:10823000E3685D71236820465B689847E3681C68C3
:10824000002CF5D138BD00BF542C002008B500F03B
:108250004BF804210348FFF7AFFF034B01225A718B
:1082600008BD00BFF0BE050094220020704700BF8B
:1082700000B583B0044B0093044A402300F036F865
:1082800003B05DF804FB00BF9182020014310020AE
:1082900002B32DE9F843114B114E8846144643F0C2
:1082A000010903270025224608EB0501002000F004
:1082B00087F803461D444FF47A40E41A23B9337813
:1082C00033B1C847013F06D001233370002CEAD1F7
:1082D000BDE8F88370473770BDE8F883A08E0500CD
:1082E00010310020704700BF00F01EB9F0B595B006
:1082F000002415460F4608461E46FEF79DFB3846ED
:1083000023460895082205A91A9D09960D950A94F9
:108310008DF82C400C94FEF7E9FB9DF814308DF895
:108320001140DDE9061003F00302012ACDE9020144
:1083300027D0022A04D03846FEF782FB15B0F0BDE4
:10834000BDF81650C3F3C2038DF81030AD090826EE
:10835000082D2C4628BF0824334622460EA938464D
:10836000FEF7C4FB2D1B214608AB02AA0EA826442B
:10837000FFF7FEF8002DEBD13846FEF761FB15B094
:10838000F0BDBDF81460059DC6F38316C3F3C204A7
:10839000B2000EA9384608238DF81040C5F3952584
:1083A000FEF7A4FB08AB324628460EA9009302ABA9
:1083B000FFF738F83846FEF743FB15B0F0BD00BFB5
:1083C0002DE9F84F4400DFF85CB126180BEBC60628
:1083D0008146F76A012F8A46904667D03DD3022F27
:1083E00030D100F1010909EB4909756A4FEAC90961
:1083F0000027B36A346AAB4203F1FF329CBF1B19FA
:1084000003F1FF33A4EB05048CBF531B5B1B0BEB89
:108410000902444528BF44469C42506828BF1C4678
:108420002844514622462DF0AEFC336A25449D4235
:108430002744A8EB0408A24408D07562B8F1000FE5
:10844000D7D100E000273846BDE8F88F00231D464D
:108450007362B8F1000FCCD1F5E7B36A756AAB422D
:108460009CBF326A9B18013B5B1B9845EBD80444C8
:1084700000F101090BEBC40409EB49090BEBC90B33
:10848000266ADBF80400761BB045284443D3324605
:10849000A8EB06052DF077FC0AEB0601DBF80400DB
:1084A0002A462DF070FC47466562CCE7D6E90825E0
:1084B000B76AAF4298BFBF18461C013F06EB46069D
:1084C0007F1B0BEBC606474528BF47467068A2EBEB
:1084D00005084745284412D3A1444246A7EB0805A6
:1084E0000BEBC90B2DF04FFC0AEB080170682A4614
:1084F0002DF049FCCBF824503846BDE8F88FA14454
:108500000BEBC90B3A463D442DF03DFCCBF8245013
:108510003846BDE8F88F424645442DF034FC4746C6
:10852000656290E74C82002038B5114C114B12481F
:10853000E36110254FF40073104A11492362E0648F
:1085400000232565E01D0225A3626362E362A36543
:108550006365E365A261A264C4E904552EF0C0F826
:10856000204608492EF0BCF82023A37138BD00BF77
:108570004C8200206431002054310020B48E05006C
:10858000C08E0500C48E050000B585B000230390A1
:10859000194601AA44F20100CDE9013300F036F892
:1085A00005B05DF804FB00BF30B482B001248DF843
:1085B0000740154B9DF80750186044F20104A04293
:1085C00059609A6014D044F20201884208D072B611
:1085D0009DF80730002BFBD162B602B030BC70476B
:1085E000DA60DA6812889A61DA685268DA61EEE76E
:1085F0001A611A6992685A611A6912689A611A694D
:108600005268DA61E3E700BF643300202DE9F041EE
:10861000054684B00F46164672B6FFF701FEFFF717
:10862000BFFD0028FBD1274B274CE41AE40841F298
:10863000010324049D4244F001043DD02FD944F2AB
:1086400001039D4216D044F202039D422ED12046E2
:10865000338872681D49FFF765FB1D4B1B68DB07FC
:1086600000D500BE32463946284604B0BDE8F04188
:10867000FFF79ABFD6F808804046FEF76BFA3368DA
:108680001449CDE9013773680093424603462046FA
:10869000FFF7E8FC20461049FFF716F9DDE7012D4A
:1086A00004D120460D49FFF70FF9D6E720463A4698
:1086B0000B49FFF7B7FAD0E720460A49FFF704F95C
:1086C000CBE700BFF8BD050038BE0500108F0500E0
:1086D000F0ED00E02C8F0500548F0500CC8E0500D6
:1086E000688F0500EC8E050010B570B101280BD124
:1086F0000D4C2369A0703BB1D3E900230120226116
:1087000098472369002BF7D110BD074CA3680122BD
:108710006270002BF8D0D3E900230020A2609847B4
:10872000A368002BF7D1EFE78433002070B910B5B0
:10873000074CA368012262703BB1D3E900230020FB
:10874000A2609847A368002BF7D110BD704700BF07
:108750008433002030B5012883B01CD015D3032802
:1087600011D100F0A9F802A800231F4C00F8013D28
:1087700000F0BEF9E368013BE360E56865B39DF88E
:10878000070000F0DBF903B030BD184B0122C3F83D
:10879000802003B030BD02A80023134C00F8013D37
:1087A00000F0A6F9237853B1E3689DF80700013380
:1087B0000122E360A27000F0C1F903B030BD0C48A3
:1087C0006360A3602361E36000F068F800F056FC8A
:1087D00030B101232370E7E700F0B0F8A570CEE7D1
:1087E00000F06AF8F5E700BF8433002000E100E004
:1087F000E986020038B50C4C237873B90B486360E6
:10880000A3602361E36000F049F8054600F036FC00
:1088100030B101232370284638BD8525284638BD50
:1088200000F04AF8F5E700BF84330020E986020033
:1088300030B5194CA37883B0054693B110B14368A5
:108840000120984702A8002300F8013D00F050F9EC
:10885000E3689DF807000133E36000F06FF903B0AF
:1088600030BD02A803F0FF0200F8012D00F040F92E
:1088700065B1226942B1954208D0134601E09D429C
:1088800004D01B68002BFAD12A602561E368002B15
:10889000DED100F023F8DBE784330020054A1379AA
:1088A00033B90121106093715371184611717047EB
:1088B0008520704798330020074B1A68D20704D4EC
:1088C000C021012283F800131A604FF08043002278
:1088D000C3F81825704700BF00E100E010B4134949
:1088E000134B144A0020086083B0096801914FF0CF
:1088F00080410220019CC1F80403D86840F08071D7
:10890000D960146844F001031360516853685B1A1E
:10891000B3F50A5FFAD30649074B14600122C86019
:108920001A6003B05DF8044B704700BF04010040BB
:10893000F0ED00E0001000E008000040044B0122D0
:108940001A604FF08042D2F81834DB03FBD4704732
:108950000C00004010B5274B1A6884B07AB1002192
:10896000254A19601B68507900934FF0804101231C
:10897000009CC1F8083310B91168537188471F4B28
:108980001A686AB100221A601B6801934FF0804296
:108990000221194B0198C2F808131B68012098475F
:1089A000174B1A686AB100221A601B6802934FF0D5
:1089B00080421021104B0298C2F808131B68022055
:1089C0009847104B1A689AB10F480B490022026071
:1089D0001A601B6803934FF080430820039CC3F880
:1089E00008030B688A71032004B0BDE810401847E3
:1089F00004B010BD00010040983300200401004085
:108A0000100100400C010040340C004001F01F0236
:108A10004B09012100EB83009140FDF75FBE00BFD1
:108A200010B5012301F01F04490900EB810003FA8E
:108A300004F1FDF747FEE04000F0010010BD00BF6B
:108A400001F01F0201234909934000EB8100D94343
:108A5000FDF750BE4B0901F01F0150F82300C8403C
:108A600000F00100704700BF2DE9F84F01F1FF3918
:108A70004FEA591300F104090F46064609EB830932
:108A8000044600254FF0010823686FEA030B9BFAA8
:108A9000ABFBBBFA8BFBBBF1200F20D0AB445F4597
:108AA0000CD81CE02368DB4393FAA3F3B3FA83F3F7
:108AB000202B05EB030B12D05F4510D90BF01F0ADA
:108AC0004FEA5B1008FA0AF106EB8000FDF7FAFDA9
:108AD00020FA0AF0C307E5D45846BDE8F88F0434FD
:108AE0004C4505F12005CFD1BB465846BDE8F88F6F
:108AF00070B4EFF3108472B60D4B9A68AAB90D49A1
:108B00000D4E01259D60D1F8805035401D60C1F8A3
:108B10008060D1F884505D604FF0FF33C1F884303D
:108B2000027004B962B670BC704701230370F8E7A5
:108B3000C482002000E100E0FC06FFBD094B9A68FA
:108B40007AB170B910B4EFF3108172B6064A1C689E
:108B500014605C685460986001B962B65DF8044BBB
:108B600070477047C482002000E100E001600B689C
:108B700043604A68934204BF00234360704700BFCC
:108B8000436843B1026891680B4443605268934262
:108B900004BF0023436070474BDF704710B5114C92
:108BA00084B001A8FFF7F8FFA8B9214602A8FFF793
:108BB000DDFF039B002BF4D0D3E9002101989047FF
:108BC00002A8FFF7DDFF039B002BF5D101A8FFF7FB
:108BD000E3FF0028E9D0052801D0FFF7D5FC04B059
:108BE00010BD00BF908F050060DF704769DF7047E0
:108BF00061DF7047134B1B781BB330B5124D91B03A
:108C000034240DF1020103A8ADF80240FFF7F0FF94
:108C100088B9294601A8FFF7A9FF029B002BF0D0D5
:108C2000D3E9002103A8904701A8FFF7A9FF029B01
:108C3000002BF5D1E5E7052801D0FFF7A5FC11B021
:108C400030BD7047A0330020E0910500002900F0FE
:108C5000A78070B5534B0B6084B00C4605460C22C0
:108C6000002101A82DF09AF80126062301A9226807
:108C70008DF8045020208DF80660ADF80830FFF71D
:108C8000B5FF00287ED10C22002101A82DF086F826
:108C9000012100238DF8051022688DF8063001A906
:108CA00040208DF80730FFF7A1FF00285CD10C228F
:108CB000002101A82DF072F8042322688DF80430F9
:108CC0000DEB03010120FFF791FF00283ED10C229C
:108CD000002101A82DF062F84FF4B06322680193DF
:108CE00001A9A120FFF782FF10BB0C22002101A8DF
:108CF0002DF054F89DF8043022686FF3000301A9A9
:108D0000A0208DF80430FFF771FF08B904B070BDE2
:108D1000FDF720FF244A254B25499B1ADB081B043D
:108D2000024643F00100FEF77DFF002004B070BD55
:108D3000FDF710FF1C4A1D4B1E499B1ADB081B0444
:108D4000024643F00100FEF76DFFCEE7FDF702FF9C
:108D5000154A164B18499B1ADB081B04024643F0C0
:108D60000100FEF75FFFB2E7FDF7F4FE0E4A0F4B7E
:108D700012499B1ADB081B04024643F00100FEF770
:108D800051FF94E7FDF7E6FE074A084B0C499B1A92
:108D9000DB081B04024643EA0600FEF743FF72E7C6
:108DA0000E20704790220020F8BD050088BE050007
:108DB000DC900500889005003C900500F08F0500D0
:108DC000A88F0500F8B506460768FFF70DFF336862
:108DD000BB42054605D825BB1A4B01221A7028460E
:108DE000F8BD194B194C1A49E41AE408240444F05C
:108DF00002042046FEF768FD3A46204633681549CE
:108E0000FEF790FF4FF080533268D3F80C311249CF
:108E10009B0203F1005320469A1AFEF703FF002D30
:108E2000DAD02846FDF796FE074A084B0B499B1AF5
:108E3000DB081B04024643F00100FEF7F3FE284660
:108E4000F8BD00BFA0330020F8BD050088BE0500B6
:108E5000309105006091050094910500C0910500D6
:108E600010DF704711DF704770B53B4D2B7884B031
:108E7000002B63D1394E3A49012302A83370FFF722
:108E800075FE039B002B4FD1364902A8FFF76EFEFB
:108E9000039B4BB1D3E900210020904702A8FFF7C4
:108EA0006FFE039B002BF5D12F4A002312688DF82B
:108EB000083002A80192FFF71BFE2C4901A8FFF71A
:108EC000CFFFB0FA80F304465B099DF808002B70D1
:108ED000FFF734FE002C2ED1254B26491C70347030
:108EE00091F81623EC2352091341DB072FD5224BAF
:108EF0009A683ABB4FF480030B601A4902A8FFF747
:108F000035FE039BBBB1D3E900210120904702A8A5
:108F1000FFF736FE039B002BF5D10CE002A8FFF70C
:108F20002FFE039B002BAFD0D3E9002100209047F8
:108F30000028F3D10446204604B070BD0824204622
:108F400004B070BD1A6842F480021A60D5E742F29C
:108F50000200FFF719FBD0E7A2330020A133002065
:108F6000FC91050014920500F89105000D860200A1
:108F7000A333002000E100E0C4820020F0B5314DB1
:108F80002B7883B0002B54D02F4E304901236846F4
:108F90003370FFF7EBFD019B002B40D12C49684655
:108FA000FFF7E4FD019B4BB1D3E90021022090477C
:108FB0006846FFF7E5FD019B002BF5D100276846C9
:108FC0008DF80070FFF794FDFFF74CFF04469DF805
:108FD00000002F70FFF7B2FD44BB1E4B34709A683F
:108FE0005ABB1D4B4FF48002C3F8802018496846D5
:108FF000FFF7BCFD019BCBB1D3E9002103209047D3
:109000006846FFF7BDFD019B002BF5D1204603B05C
:10901000F0BD6846FFF7B4FD019B002BBED0D3E93D
:109020000021012090470028F3D10446204603B0D8
:10903000F0BD0824204603B0F0BD1A6822F4800277
:109040001A60D3E7A2330020A1330020FC91050071
:1090500014920500C482002000E100E0054B1B785B
:1090600033B1054B1B780BB9FFF7FEBEFFF786BF88
:1090700008207047A1330020A2330020014B18784C
:10908000704700BFA233002000B583B0684608498E
:10909000FFF76CFD019B43B1D3E900209047684680
:1090A000FFF76EFD019B002BF6D103B05DF804FBCA
:1090B000089205002DE9F0470388B0F80490103BB2
:1090C00098B080460A2B1BD8DFE803F02F281A1A25
:1090D0001A1A1A1A1A1D0600047A46482409032C83
:1090E000494665D8FFF7ACFC032C63D0494642489B
:1090F000FFF7A6FC022C61D049464048FFF7A0FCD0
:1091000018B0BDE8F087037A002BF9D1437A3948CB
:109110001B0749466AD4FFF793FCF1E749463848F4
:10912000FFF78EFC18B0BDE8F087364A936818A8A0
:10913000DB4340F8603D5168FDF7DCFA009B01938A
:10914000019B63B300273C46214601A8FFF782FC40
:1091500028B118AB03EB4703013723F8284C01343F
:10916000142CF1D10D970DAE0FCE02AC0FC40FCE63
:109170000FC496E8070084E8070087B10DF10A0ADA
:10918000214E0AEB47073AF8025F204C2046294659
:109190000434FFF755FCA642F8D1BA45F3D1B9F132
:1091A000130F12D90420FFF7EFF918B0BDE8F087CC
:1091B000FFF72CFC49461048FFF728FC49460F48AA
:1091C000FFF724FC18B0BDE8F08749460C48FFF7CC
:1091D0001DFC49460D48FFF719FC98F80F30012B8C
:1091E0008ED049460A48FFF711FC89E7FFF70EFCCD
:1091F00086E700BFBC330020B8330020B433002022
:10920000AC330020A433002020340020A8330020F9
:10921000B0330020132801D90020704701460148CF
:10922000FFF718BCA8330020132801D9002070478D
:1092300010B5014604460748FFF70CFC08B90020AA
:1092400010BD21460448FFF705FC002814BF02208A
:10925000012010BDA8330020B0330020132801D90D
:109260000020704710B5014604460748FFF7F2FB9F
:1092700008B9002010BD21460448FFF7EBFB002889
:1092800014BF0220012010BDA8330020AC33002001
:10929000132801D90020704710B50146044606483E
:1092A000FFF7D8FB08B9002010BD21460348BDE8F0
:1092B0001040FFF7CFBB00BFA8330020B43300201D
:1092C000132801D90020704710B50146044606480E
:1092D000FFF7C0FB08B9002010BD21460348BDE8D8
:1092E0001040FFF7B7BB00BFA8330020B833002001
:1092F000132801D90020704710B5014604460648DE
:10930000FFF7A8FB08B9002010BD21460348BDE8BF
:109310001040FFF79FBB00BFA8330020BC330020E4
:1093200008B518210248FFF79FFBC0B208BD00BF77
:10933000A433002070B50C4C054620460E46FFF7BE
:1093400089FB08B1132D01D9002070BD2946201DCD
:10935000FFF780FB0028F7D0F01D04EB80002946C2
:10936000BDE87040FFF776BBA4330020F8B50F4C82
:109370000546204617460E46FFF76CFB08B1132D35
:1093800000D9F8BD2946201DFFF764FB0028F8D05E
:10939000F01D04EB800029461FB9BDE8F840FFF737
:1093A0004FBBBDE8F840FFF731BB00BFA43300203E
:1093B000F0B5144C054683B00F46204629461646A4
:1093C000FFF748FB18B90025284603B0F0BD063565
:1093D00004EB850463680193002FF4D0019B002BFC
:1093E000F1D000252C46214601A8FFF733FB31467A
:1093F00010B1A0B2B84701350134142CF3D128467E
:1094000003B0F0BDA433002075DF704776DF7047EE
:109410007ADF70477BDF704730B51D4B1A8884B206
:10942000A24283B001D003B030BD1A4D187A297B17
:1094300088420FD32A7C00211972E2B96B69002B94
:10944000F1D00022ADF806408DF8042001A898471D
:1094500003B030BD104603F10A01FFF7D5FF28B174
:109460001128E0D0AB69002BF1D1DCE71A7A013288
:109470001A7203B030BD3B212046FFF7C7FF30F022
:109480000803DBD0AB69002BD8D09847D6E700BFE4
:109490003C34002020340020F0B50288112A83B02B
:1094A000034649D036D9122A08D0502A04D16C4D2F
:1094B000C188EA89914251D003B0F0BD694C8288DD
:1094C00021889142F8D1E1896589B1F5FA7F24BFFD
:1094D0006FF4F9700E18588938BF002685424FD8AE
:1094E000A58985424CD39B89B34249D301F2F3113C
:1094F000994245D35A4B5B694FF480712181002B0F
:10950000DAD00121ADF806208DF8041001A89847A3
:1095100003B0F0BD102ACFD1C27B012ACCD1514C6F
:1095200021884FF6FF7291423CD04D4B9B69002B36
:10953000C2D004209847BFE74A4C828823889A42C9
:10954000BAD1606801F0E6FD18B1454B9B6903B1E3
:1095500098474FF6FF73238003B0F0BD028A022ABA
:10956000AAD1404C86882788B742A5D1123000F096
:1095700047FB002856D1606801F0CCFD70B99BE72D
:10958000374D267A6068D5E90131002E08BF1946AB
:109590000023637201F05CFD00288DD0AB69002BC5
:1095A000B5D189E7304D8288228003CDC4F80E10F2
:1095B000E689C4F80A00B6F5FA7F28BF6FF4F9759A
:1095C0004FF00001588AB4F80AC0217228BF7119FF
:1095D000234D8445EF8919D8B4F80CC0844515D3C0
:1095E0009B8A8B4212D306F2F3169E420ED30121C0
:1095F0006172002F7FF460AF6B69002B3FF45CAFAA
:109600008DF80410ADF8062001A880E700236372EE
:10961000002F7FF451AF6068696801F019FD0028E0
:10962000BCD149E7637A63B9D5E90131267A60682C
:109630003A46002E08BF194601F00AFD0028ADD1B8
:109640003AE76B6900222272002B3FF435AF01220A
:10965000ADF806608DF8042001A898472CE700BFFC
:10966000203400203C3400205034002000282FD02B
:10967000F8B5054606460FCD164F3C460FC4844646
:1096800095E80700144B3B6084E80700BCF1000F2D
:1096900018D06046FFF7BCFE98B932681068516870
:1096A00003C30E4B0E490F4A18464FF6FF7440F89D
:1096B000041F1C80002101F099FC002814BF032026
:1096C0000020F8BD1846FFF7A5FE0028E9D0F8BD38
:1096D0000E20704720340020503400203C340020FD
:1096E00058340020199402006DDF704779DF70470D
:1096F0007DDF704764DF70472DE9F04F83B0048849
:109700000C9EBDF83490B6F800A0002C39D09846D5
:10971000002317468B4605461C4603E02A88013481
:10972000A24224DD6A6852F82400019000220DF163
:10973000030101A8FFF7DEFF20BB9DF80320BA421A
:10974000ECD13288B91803B389452BDB42440DF1C3
:10975000030101A80123FFF7CDFF98B931889DF8D7
:1097600003200A4432802A880134A242DADC43B161
:109770003388013BA3EB0A039BB2FF2B12D808F8F6
:109780000A30002003B0BDE8F08F02310132894574
:1097900092B207DB328008F802B03288013292B20E
:1097A0003280D3E70C2003B0BDE8F08F2DE9F047FD
:1097B00000231788138090F82D3086B01446054694
:1097C0000E46002B40F0FB80AA78002A40F0FD8076
:1097D000EA78A2B1D91CB94200F2F3800221F15417
:1097E000238801339BB201212380F15423880B4449
:1097F0009BB22380F25423880B449BB223806A6877
:10980000AAB1D91CB94200F2DC80022192F90020F1
:10981000F154238801339BB20A212380F154238819
:1098200001339BB22380F2542388013323802B8998
:10983000002B40F01B812B8A002B40F02F812B8BBB
:10984000002B40F043812B6A002B44D02288911DCD
:10985000B94200F2B6801988052940F203816FF4FD
:10986000486801EB080080B24FF27D3C604540F251
:10987000F9805888052840F2F5806FF4486E8644D8
:109880001FFA8EFEE64540F2ED804FF6FF7C614503
:1098900004D0604502D0814200F2E4800521B15439
:1098A0002288013292B212212280B15422880132E0
:1098B00092B222801988B1543244090A5170228828
:1098C000023292B222805B88B35432441B0A537036
:1098D0002388023323806B6A002B2FD09988B4F839
:1098E00000C0881C0CF102020244BA4269D8FE286A
:1098F00067D8033106F80C102288013292B2FF219A
:109900002280B1542288013292B222801988B15447
:109910003244090A51702088023080B220809A882F
:1099200062B199680393002900F09C8030442CF0C8
:109930002AFA039B9A8823881344238095F82C30B5
:10994000002B40F08A80287800283BD02B88012B00
:1099500000F08880228802F1020CBC4531D8012831
:1099600004D16B78023313449F422AD3BB1E9B1A47
:1099700006A99BB221F8083D06EB0C00FFF7B8FEE4
:1099800000BB2978BDF81020022900F00481687816
:109990009042C0F0FB809342C0F0F8800921FE2A7B
:1099A0000FD82388501CF054238801339BB22380A6
:1099B000F154238801331A442280002002E0082F4A
:1099C00023D80C2006B0BDE8F0870433BB42F8D89A
:1099D00004A8FFF78BFE0028F4D12388BDF81020DF
:1099E0000321F154238801339BB219212380F154C0
:1099F000238801339BB2F1182380F254120A4A7073
:109A0000238802339BB22380E2E604A8FFF76CFEB2
:109A10000028D7D113880822CA54238801339BB267
:109A20001B222380CA542088013080B22080062265
:109A300008440DF111012CF0A6F923889DF810209F
:109A400006339BB212F0FE0218BF01222380F254AB
:109A5000238801339BB22380B6E6D5F82880B8F17D
:109A6000000F4CD1072006B0BDE8F08705F10808CB
:109A70000222CDE90047404611463346FFF73CFE3F
:109A800000289FD1CDE900474046334610220621E9
:109A9000FFF732FE00283FF4CEAE93E705F1100841
:109AA000CDE900474046334602220321FFF724FE5A
:109AB000002887D1CDE900474046334610220721D0
:109AC000FFF71AFE00283FF4BAAE7BE705F118084D
:109AD000CDE900474046334602221421FFF70CFE31
:109AE00000287FF46FAFCDE900474046334610228F
:109AF0001521FFF701FE00283FF4A5AE62E7B8F894
:109B000004200232FE2A3FF65CAF23884FF00009A2
:109B10004FF0160A0132F254238801339BB223809E
:109B200006F803A0238801339BB22380B8F80020F5
:109B3000F2543344120A5A70238802339BB22380B2
:109B4000B8F80410F0180A4661B1D8F80830194680
:109B5000002B87D02CF017F9B8F804202388134481
:109B60009BB2238009F1010995F82C205FFA89F94D
:109B70004A4509EB49087FF6E6AEAA6A02EB880877
:109B8000B8F804200232FE2AC4D91AE7012906D007
:109B90001A46082103E79342BFF400AFF8E7834277
:109BA000F6D302460821FAE618B330B4437893425C
:109BB00020D0D9B10024234601E0994216D9045D92
:109BC000013423449BB2C5181C466D789542F4D1EC
:109BD00099420BD9025D0233013A92B29BB29C18B2
:109BE0008C4203DC4AB1184430BC7047002030BCC2
:109BF0007047704700242346EAE71046F7E700BFA6
:109C0000007800F001007047F0B583B002AB00258A
:109C100003F8015D044618460F46FEF769FF236806
:109C2000A2681E685868904238BF451CAE4213D0E7
:109C30005D6859688A420CD800225A60E268606800
:109C4000531E072B46D8DFE803F0423E4531454519
:109C5000451901315960F1E7207C002840D15D6849
:109C600059688A4244D9013159602268A168136851
:109C70008B4234BF013300231360DFE7D7E90023B1
:109C800000EBC500C0E900232268136850688342D6
:109C900014D8C31A91689DF80700994238BF9360A1
:109CA000FEF74CFF0024204603B0F0BD3B6840F8AF
:109CB00025302268136850688342EAD9A1680131CF
:109CC0000144CB1AE6E73B8820F81530DCE73B7807
:109CD0004355D9E7394605FB02002CF054F8D3E789
:109CE0009DF80700FEF72AFF0424204603B0F0BDCC
:109CF0005860BAE770B582B002AB002403F8014D9A
:109D0000044618460E461546FEF7F2FE236819680B
:109D10005A6891424DD018682DB91A68A1688A42D4
:109D200038BF551C1D60E2686168531E072B33D88D
:109D3000DFE803F0121C32273232320401EBC0019B
:109D4000D1E900239DF80700C6E90023FEF7F6FEDF
:109D50000024204602B070BD0B5C33709DF80700F4
:109D6000FEF7ECFE0024204602B070BD31F8103042
:109D700033809DF80700FEF7E1FE0024204602B084
:109D800070BD51F8203033609DF80700FEF7D6FE15
:109D90000024204602B070BD00FB021130462BF0BB
:109DA000F2FF9DF80700FEF7C9FE0024204602B02E
:109DB00070BD9DF80700FEF7C1FE0524204602B0E5
:109DC00070BD00BF036818685B68C01AB0FA80F005
:109DD00040097047064A074B10B5002414701C60F8
:109DE000BFF35F8F04490548FEF7C0FE204610BD53
:109DF000803400208434002028920500783400202C
:109E0000074B184490F924309B0003F1804303F57D
:109E1000C043D3F8102522F00302C3F81025704781
:109E200088340020054B184490F924000C30800041
:109E3000C0B200F1804000F5C04070478834002077
:109E4000054B184490F9240018308000C0B200F18E
:109E5000804000F5C0407047883400202DE9F04173
:109E600086B00023AE4A01931768012F00F0B78037
:109E70001F46AC4B1A68012A00F0C080AA4B1A6832
:109E8000012A00F0CD80A94B1A68012A00F0DA807F
:109E9000A74B1A68012A00F0E780A64B1A68012A2E
:109EA00000F0F480A44B1A68012A00F00181A34B52
:109EB0001A68012A0CD0A24B1B68012B00F0088104
:109EC00017F0FF0F15D1002F30DB06B0BDE8F08191
:109ED0009C4AD2F804231206EDD500221A601A68B3
:109EE00004926033049A1B68012B47F0800700F04E
:109EF000EF80954D00240126A30003F180433E42EC
:109F000003F5C0434FEA46060BD0D3F8100555F8C9
:109F10002420D3F81015C0F30420C1F3014102B18D
:109F200090470134082CE7D1002FCEDA00224FF001
:109F3000FF33CDE90223844C012502AE94F944306D
:109F4000D9B2013321F0C000BFD006AB4FEAD00C2C
:109F500003EB0C0701F0070317F80C2C05FA03F3C9
:109F60001A42B2D02218890992F9242054F822808A
:109F7000B8F1000F00F0CB80032900F0CB80820005
:109F800002F1A04217F814CCD2F800771CEA030FB4
:109F9000C7F3014740F0AA80032F96D1032940F070
:109FA000AA804FF40033D2F8001721F44031C2F8F0
:109FB0000017D2F800170B43C2F80037B8F1000FB2
:109FC00001D00321C0474FF0A043019AD3F81035C8
:109FD00093423FF47AAF029A01930392AEE7594954
:109FE000D1F8041311F0010170D0136013680493C9
:109FF000049B4C4B1A68012A7FF440AF514AD2F8B7
:10A00000042392077FF53AAF00221A601B6804937D
:10A01000049B454B1A68012A47F002077FF433AFCF
:10A02000484AD2F8042356077FF52DAF00221A6064
:10A030001B680493049B3D4B1A68012A47F00407F0
:10A040007FF426AF3F4AD2F8042315077FF520AFEF
:10A0500000221A601B680493049B354B1A68012A7E
:10A0600047F008077FF419AF364AD2F80423D40624
:10A070007FF513AF00221A601B680493049B2D4BDD
:10A080001A68012A47F010077FF40CAF2D4AD2F866
:10A09000042390067FF506AF00221A601B68049324
:10A0A000049B254B1A68012A47F020077FF4FFAE76
:10A0B000244AD2F8042351067FF5F9AE00221A6033
:10A0C0001B680493049B47F04007F0E60F46D0E678
:10A0D0001B4B00221A601B6805934FF0A043059AA2
:10A0E000D3F81035019347F00047E9E6022F7FF4DB
:10A0F000ECAE032908D0B8F1000F3FF4E6AE4346BA
:10A1000006B0BDE8F04118474FF440334BE7032950
:10A110007FF4DBAE16F80C201A4306F80C202EE76D
:10A120000061004004610040086100400C61004093
:10A130001061004014610040186100401C61004043
:10A140007C6100400060004088340020014B1B68A7
:10A15000184700BFD4340020104B984201D0002093
:10A16000704730B583B002A8002300F8013D0D46CA
:10A17000FEF7BEFC0A4B1C7934B19DF80700FEF7D0
:10A18000DDFC112003B030BD01229DF807001D60E9
:10A190001A71FEF7D3FC2046F4E700BF0020004010
:10A1A000D43400202DE9F041734B1A6888B0002A9E
:10A1B0004CD1DFF8DC8198F82E30002B54D16F4B56
:10A1C0001A686AB100221A6008A81B68039302216A
:10A1D00000F80C1DD8F80030039988F81020984733
:10A1E000674B1C68002C7CD1D8F814705FB34FF01B
:10A1F00000450126B7FA87F101F146039B0003F100
:10A20000804202F5E042A3F58C73D2F800E083F0BF
:10A21000040025FA01F1C0F3800CDB0805A827EA49
:10A220000107BEF1000F0CD01460126804928DF883
:10A2300018308DF814608DF819C0D8F80030049AE1
:10A240009847002FD6D108B0BDE8F0810022DFF892
:10A2500040811A60196898F82E3000910099F3B186
:10A2600098F82F30002B46D1464B1A68002AA6D00A
:10A270000020186098F82D201968B8F81A3001915C
:10A2800091B28B42019C4DD861D03B4B3E4A00219C
:10A2900019601B6802930123029913608FE7D8F8B5
:10A2A0000C20D8F80400B8F808108DF81430069087
:10A2B000ADF81C10002A46D03448B8F81810C8F879
:10A2C00004200122C8F80C30A8F81A10A8F80810C9
:10A2D0000260D8F8003005A89847002388F82F308E
:10A2E00069E700221A601B680593059B88F8102017
:10A2F00008B0BDE8F081D8F80C30D8F80400B8F800
:10A3000008108DF814200690ADF81C10DBB1B8F8D9
:10A310001810C8F80430C8F80C20A8F81A10A8F8CB
:10A320000810D6E7B8F80800184C5B1A9BB2D8F8AA
:10A330000410A8F81A30C01A01EB4001C4F82C161A
:10A34000C4F83026A1E7002388F81030C1E7D8F818
:10A350000C3053B10D49A8F81A00012088F82F00DD
:10A36000C1F82C36C1F830268FE70122A8F81A3040
:10A3700088F82F2089E700BF047100401071004069
:10A3800014710040007100400470004000700040F3
:10A39000DC340020234B93F82C20002A3FD170B4EA
:10A3A000214C05781960C4F8F05545781F49C4F868
:10A3B000F4556FF000451A74C678C4F8085385B098
:10A3C0000A60096803911A49039D0A600968194DDA
:10A3D000029102992A60817883F82E602D681648D0
:10A3E0000195490183F82D205A6183F82F20C9B2C5
:10A3F0008022F5B2019E80F807130260022101223B
:10A40000C4F8041383F82C200DB1C4F80423064BC0
:10A4100001220020C3F8002505B070BC7047082059
:10A42000704700BFDC340020007000400471004021
:10A43000007100401471004000E100E0F0B42D4ACA
:10A440002D4B1224C2F808431D7C022D82B04BD044
:10A450001C7C012C24D093F82E4058600227012543
:10A460000026C2F804731D74DE6019816CB9234B99
:10A47000C2F82C06C2F830161C601B680193019BC1
:10A480001560204602B0F0BC704793F82D40C2F82A
:10A490002C0630465983C2F8304602B0F0BC7047F3
:10A4A000DC6834B102231120C2F8043302B0F0BCDE
:10A4B000704793F82E20D86019836AB90F4A136841
:10A4C000002BFCD00023136012680A4B0092009A04
:10A4D000C3F82C06C3F83016064B02220020C3F83E
:10A4E000042302B0F0BC70471120C2F8044302B04C
:10A4F000F0BC704700700040DC3400200071004068
:10A500000C4A137CA3B930B403F0FF000A4B0B4C88
:10A510000B490225157482B018601B680193019DD8
:10A5200010220123C4F804230B6002B030BC704732
:10A5300011207047DC340020107100400070004092
:10A540000C70004014490B7C1BB370B4134B144CBB
:10A55000144800221A6083B01B6801932025012350
:10A56000019EC4F8045303600B7C022B12D042F20C
:10A57000107301E0013B02D00A7C002AFAD1084A9C
:10A5800000232020C2F808034B60CB6003B070BCEE
:10A59000704770470A74F2E7DC3400201471004001
:10A5A00000700040087000404FF04022D2F818318F
:10A5B000E3B100210F4BC2F81811D2F81811DA7F5D
:10A5C00082B0FF2A0191019908D0987F012101FAF8
:10A5D00002F24FF0A04150B1C1F80C2500225A7789
:10A5E0001A72D3E90021044802B010477047C1F83D
:10A5F0000825F3E70C350020143500202DE9F04F35
:10A600000579DFF8E8814FEAC50909EB0506B600D0
:10A6100008EB060B83B09BF81C70002F40F0BD8048
:10A620009A46036801920C4607466D490093184606
:10A63000FFF792FD002840F0B480019A48F8062008
:10A64000CBF804A0217B94F800C0009B01294FF0B7
:10A65000A0464FF0010101FA0CF194BFC6F80C15A9
:10A66000C6F8081521784FF0A04C01F5E0710126DD
:10A670004CF821606178FF2900F0A08001F5E07EB0
:10A680008E404FF0030ACCF80C654CF82EA094F8DD
:10A6900002C0BCF1FF0F00F08E800CF5E07E4FF0A1
:10A6A000A0464FF0040A46F82EA0E64694F802C0F1
:10A6B00009EB050608EB860686F820C094F803C06F
:10A6C00086F81FC0E678FF2E1DD094F804A04FF046
:10A6D000010C0CFA06F64FF0A04CBAF1000F64D151
:10A6E000CCF80865E6784FF0A04C06F5E0764FF020
:10A6F000030A4CF826A009EB050608EB860694F839
:10A7000004C086F81EC02678C3F80865C3F80C1587
:10A71000C3F810E5A168C3F82415617B267B0031DE
:10A7200018BF0121022E58D0032E41D0012E01D195
:10A7300041F00201C3F85415A179C3F8C015002AED
:10A740003FD040210722C3F80413C3F8002539681D
:10A750006379090B4AB2002A37DB02F1604202F545
:10A7600061425B01DBB282F800333B681D4C1B0B7E
:10A770005AB2520903F01F03012101FA03F344F80E
:10A7800022304D4408EB85080022012388F81D2063
:10A7900088F81C3003B0BDE8F08F082003B0BDE896
:10A7A000F08F112003B0BDE8F08FCCF80C6599E76D
:10A7B00041F00601BEE74FF0FF3E79E74FF0FF3171
:10A7C00065E70722C3F80025DBE7074A01F00F0120
:10A7D0005B010A44DBB21376C7E741F00401A9E745
:10A7E000A9A5020000E100E0FCEC00E00C3500202F
:10A7F0002DE9F0470579DFF84CC14FEAC50E0EEBA5
:10A8000005039B0080460CEB03000E46417F82B09F
:10A81000002940F086805CF80330144623B112F022
:10A82000140F04BF012343770EEB05070CEB8707DA
:10A8300096E80F0097F81FA007F10C09BAF1FF0F77
:10A8400089E80F0009D0BA7F012303FA0AF3002A2E
:10A850006BD04FF0A042C2F80835326822B102F046
:10A860006043B3F1005F52D1B36823B103F060439A
:10A87000B3F1005F4BD1D8F800307168C3F84425BC
:10A88000C3F84815D6E90221C3F834250022C3F8DD
:10A890003815C3F81821D3F818210192019A14F041
:10A8A000010218BF0122C3F8502514F0020218BF9C
:10A8B0000122C3F8402522075CBF01221A610EEB7A
:10A8C00005025CF8222062B114F004004FF040024F
:10A8D0001ABFC3F808230020C3F8042302B0BDE860
:10A8E000F087D3F81821002AFBD075440CEB850CB7
:10A8F0009CF81F20FF2A23D09CF81E0001239340C0
:10A900004FF0A042C8B10020C2F80C35E6E775440C
:10A910000CEB850C002310208CF81D3002B0BDE834
:10A92000F087112002B0BDE8F0874FF0A042C2F8D6
:10A930000C353268002A92D196E7C2F80835CDE787
:10A940000020CBE70C3500202DE9F84389464FF075
:10A95000A04500F5E0714FF0010809F5E0721F4EC7
:10A9600008FA00F740F20D6308FA09F8C5F808750F
:10A9700046F00106C5F808854FF4807045F821308F
:10A9800045F82230B0470924D5F8103518EA030FEE
:10A990004FF480700BD1C5F80C75B047C5F8087539
:10A9A0004FF48070B047631E13F0FF04ECD14FF0FA
:10A9B000A0444FF48070C4F80C85B0474FF4807009
:10A9C000C4F80885B047D4F8103523FA09F919F00E
:10A9D000010F0CBF03200020BDE8F8836092050042
:10A9E000F0B57D4BD3F824218DB0CAB10022C3F855
:10A9F0002421D3F824210592059AD3F804217AB9A9
:10AA0000764A02219068C3F8080391609168C3F800
:10AA10000413012182F82E10196259610DB0F0BDA6
:10AA20006D4D6E4CD5F80431002B3CD04FF0000C2E
:10AA3000C5F804C104F10C070FCF07AED5F804E147
:10AA40003F68CDF810E00FC694F82E30049A3760B6
:10AA5000002B64D0C5F860C1D5F860310293029B29
:10AA6000C5F85CC1D5F85C310393039B94F83020A2
:10AA7000594B5B480021C3F80012A160C3F80803DA
:10AA80005549D1F8C434C1F8C434980725D50123F9
:10AA90008DF818300AB984F82F20D4E9003106A8BF
:10AAA00098470DB0F0BDC5F84831D5F84821237B53
:10AAB0000192019A0BBB04F10C070FCF07AE0FC632
:10AAC00094F830203B683360002AD9D1444BC5F854
:10AAD0000022A260C5F80833D2E7590709D4DB0782
:10AAE00007D494F82E30002B51D004238DF8183061
:10AAF000D0E702238DF81830CCE74FF4007140F214
:10AB00000222374BC5F80012A260C5F80833A368CB
:10AB1000C5F804330123AB602B620DB0F0BD227B7E
:10AB2000032A1AD8DFE802F049423602A1682D4A0A
:10AB3000914249D0A16840F2022291420DD12649AA
:10AB40006269D1F84C15914207D0234A00230621AF
:10AB5000C2F800350123C2F800151F4A84F82E30D0
:10AB60000021C2F86011D2F8600102900298C2F888
:10AB70005C11D2F85C1194F8302003910399002AFB
:10AB80003FF476AF002B3FF47BAF1A4670E78DF8A9
:10AB900018307FE7104A2169D2F84C058842D4D199
:10ABA000D2F83C1562699142CFD1D6E70A492269B1
:10ABB000D1F83C159142C8D1CFE707492269D1F8B5
:10ABC0004C159142C1D1C8E703492269D1F84C150F
:10ABD0009142BAD1AEE700BF0030004030350020CE
:10ABE00002029C01000204002DE9F84F0679364F5D
:10ABF000342404FB06F807EB080999F82D50002DC2
:10AC000056D10C468346314900681D469246FFF7EF
:10AC1000A3FA00284FD147F808A0C9F80800C9F8DE
:10AC2000045089F82F0089F83000637B89F83230AE
:10AC300023684FF0A04203F5E07340F20C6142F844
:10AC40002310636803F5E07342F82310D4E9002170
:10AC5000DBF80030C3F80825C3F80C15A268C3F868
:10AC60002425BAF1000F1BD0DBF80010237B090B61
:10AC70004AB25B01002ADBB220DB02F1604202F53E
:10AC8000614282F80033DBF80030114C1B0B5AB2E2
:10AC9000520903F01F03012101FA03F344F82230A3
:10ACA000342303FB0673012283F82D20BDE8F88FBF
:10ACB0000820BDE8F88F1120BDE8F88F054A01F0A3
:10ACC0000F010A441376DEE730350020E1A90200C7
:10ACD00000E100E0FCEC00E0B9B1B2B10123834037
:10ACE00010B4C3F3100494B10D4C2468234212D065
:10ACF000C00000F1804303F5F8330020C3F81015BD
:10AD0000C3F814255DF8044B70470E2070470720E8
:10AD10005DF8044B704708205DF8044B704700BF96
:10AD200064350020012383405A0C52044AB91BB1F8
:10AD3000064A1268134206D0054A0020C2F80435BC
:10AD40007047072070470820704700BF6435002017
:10AD500000F00140012383405A0C52044AB91BB150
:10AD6000064A1268134206D0054A0020C2F8083588
:10AD70007047072070470820704700BF64350020E7
:10AD800000F001402DE9F04F036893F82140022CB8
:10AD900083B075D11F8B4E000D46044671186A486A
:10ADA00002FB07F203EB8101A0FB02025209496892
:10ADB00097B28F4268D06068DFF89881017918F8FF
:10ADC0000130DBB2FF2B11D0FE2B66D003F5A87348
:10ADD0000068DFF878C150F823005CF82130984211
:10ADE0005BD1FF2308F8013063681979FE2308F866
:10ADF0000130D4F800901FFA82FA99F82000FFF78A
:10AE0000A9FFBAF1000F78D0D9F818A0574580F003
:10AE1000848005EB450B4FEA8B0B09EB0B03606855
:10AE20005A6892453DD0002A3BD0974239D2002340
:10AE3000032100F0B1F9731909EB830361689A7A71
:10AE4000096899F82030019301F5A67A59F80B00AA
:10AE5000002A73D0FEF7F4FF019B024618465146C4
:10AE6000FFF73AFF99F82000FFF75CFF6268374B65
:10AE7000127908F802506268127943F8227014E0DF
:10AE8000082003B0BDE8F08FDB6913B16268107968
:10AE90009847002003B0BDE8F08F112003B0BDE853
:10AEA000F08F0379FF2208F8032006EB050809EB71
:10AEB000880800233A462946606800F06DF998F842
:10AEC0000800FFF72FFF98F80900FFF72BFF2E442B
:10AED00009EB860677602368DB69002BD9D06268AE
:10AEE0001B4B127903EB420302215955606800F0B5
:10AEF00071F9002003B0BDE8F08F771909EB8707DF
:10AF0000787AFFF727FF387AFFF70CFF63681B7921
:10AF1000FF22574608F80320D9E7771909EB87077E
:10AF2000387AFFF717FF787AFFF7FCFE63681B7922
:10AF3000FF221FFA8AF708F80320C8E7FEF772FF1E
:10AF4000019B02468AE700BF1F85EB517035002048
:10AF5000D0820020683500202DE9F8430646D0E96C
:10AF6000007000F00BF97068022100F04BF997F8BF
:10AF70002000FFF7EFFE00253C464FF001094FF09F
:10AF8000A048E27A6B002B4492B13268216802EB50
:10AF9000830309FA01F19B7A93B9C8F80815206870
:10AFA000FEF72EFF207AFFF7D5FE607AFFF7D2FE7C
:10AFB0000C341DB187F82150BDE8F8830125E0E786
:10AFC000C8F80C15EBE700BF10B50EF017FE027BBA
:10AFD0004AB1427B8168034682F0010200681A731D
:10AFE000BDE81040084710BD0020704770B582B022
:10AFF00004682AB3237B0BB9636813B1082002B03D
:10B0000070BD15460E461022194620462AF0C6FE8F
:10B01000002E0CBF012200220B4B6273A56014BFEF
:10B020000122002200934FF47A71234607480EF064
:10B030005FFD0028606014BF00200E2002B070BDCC
:10B04000072002B070BD00BFC9AF020030AC0500E0
:10B050002DE9F041456884B0002D54D0077B77BBC3
:10B0600004460E462260EFF3058363B30DF110082A
:10B07000009748F8047D0A464346092128460EF009
:10B0800085FD012803D0042004B0BDE8F0810DF057
:10B0900043FE009702464346284606210EF076FD01
:10B0A0000128F0D1039B43B1194B4FF080525A60F5
:10B0B00040BFBFF34F8FBFF36F8F01232373002077
:10B0C00004B0BDE8F08128460EF08CFD074600284C
:10B0D000F5D14FF0020832460346CDF80080042136
:10B0E00028460EF053FD01280646CCD10DF00EFE89
:10B0F000CDF8008002463B46314628460EF046FD1C
:10B100000128DAD0BFE7082004B0BDE8F08100BF15
:10B1100000ED00E0416869B310B5044684B0EFF378
:10B12000058363B902220846009203211A460EF0F5
:10B130002DFD01281BD10020207304B010BD04ABED
:10B14000002243F8042D0846009208210EF01EFD4F
:10B1500001280CD1039B002BEDD0074B4FF0805200
:10B160005A6040BFBFF34F8FBFF36F8FE3E70420F8
:10B1700004B010BD0820704700ED00E00368054AE8
:10B1800001211961037903EB430302EB8303197275
:10B19000704700BF8435002070B44FF4803483B012
:10B1A0008C4005684BB9C5F80843036801F5A871E0
:10B1B00043F8212003B070BC70478B0003F5A073E7
:10B1C0000026EE50ED5803680195019DC3F8044335
:10B1D000EBE700BF10B48B0003F5A07304689BB2CB
:10B1E0000022E25083B0E45801944FF4803202FA16
:10B1F00001F10368019AC3F8041303B05DF8044B2E
:10B20000704700BF02684FF4803303FA01F1C2F8BF
:10B21000081370472DE9F041114C124FDFF84880B8
:10B2200082B000254FF480362368A4F5004006FA6A
:10B2300005F20021013580B253B1D7F804331A4228
:10B2400006D0216023680193D8E90031019A98471C
:10B25000042D04F10404E7D102B0BDE8F08100BF81
:10B260004081004000800040843500202DE9F041FD
:10B27000114C124FDFF8488082B000254FF4803621
:10B28000236804F5E04006FA05F20021013580B29A
:10B2900053B1D7F804331A4206D0216023680193D2
:10B2A000D8E90331019A9847042D04F10404E7D149
:10B2B00002B0BDE8F08100BF409100400090004026
:10B2C000843500202DE9F041114C124FDFF8488001
:10B2D00082B000254FF48036236804F5C04006FA9A
:10B2E00005F20021013580B253B1D7F804331A4278
:10B2F00006D0216023680193D8E90631019A984766
:10B30000042D04F10404E7D102B0BDE8F08100BFD0
:10B3100040A1004000A00040843500202DE9F0410C
:10B32000114C124FDFF8488082B000254FF4803670
:10B33000236804F5C04006FA05F20021013580B209
:10B3400053B1D7F804331A4206D021602368019321
:10B35000D8E90931019A9847062D04F10404E7D190
:10B3600002B0BDE8F08100BF40A1014000A0014053
:10B37000843500202DE9F041114C124FDFF8488050
:10B3800082B000254FF48036236804F5A04006FA09
:10B3900005F20021013580B253B1D7F804331A42C7
:10B3A00006D0216023680193D8E90C31019A9847AF
:10B3B000062D04F10404E7D102B0BDE8F08100BF1E
:10B3C00040B1014000B001408435002090DF70475B
:10B3D000A5DF7047B5DF704708B90E20704730B45D
:10B3E00003464FF0171200201B2541F61B3419614C
:10B3F0001A60C3F806201D719872D8729C8130BC07
:10B40000704700BF70B5858884B01DBB0388232BAF
:10B410000C4621D06FD93A2B54D0552B00F0B18077
:10B42000242B00F09C80A37AA3B1E1880020FFF7D1
:10B43000CFFF00286DD011280CD0FBF78BFB7A4A88
:10B440007A4B7B499B1ADB081B04024643F0010040
:10B45000FCF7E8FB04B070BD037A0A7B03959342C6
:10B4600028BF134602A96A4628460095ADF8083061
:10B47000ADF80A30ADF80450FFF7A8FF0028D2D08D
:10B48000694B6A4EF61AF608FBF764FB360446F081
:10B49000010603462A4630466649FCF743FCBDF8E0
:10B4A0000020BDF8023002B91BB163493046FCF7F9
:10B4B00039FCBDF80420002AB5D030465F49FCF7BE
:10B4C000B1FBB0E74389C98822698B4228BF0B468C
:10B4D000172B38BF172323814AB1E17A39B140F6DF
:10B4E00077210291ADF80C3002A920469047002345
:10B4F000E372A372AEE7102B0FD0112B93D14FF054
:10B50000171241F61B338D72CD72C1F806208B8164
:10B51000A0E70122A072E2729CE70B790B73C27B59
:10B52000012A52D0022A4DD0C98822898A425DD38D
:10B53000627B9A42BFF477AF00259BB228466A46E9
:10B5400002A9ADF80830ADF80A3003950095ADF8C2
:10B550000450FFF73BFF00283FF465AF90E70B690D
:10B56000027A4A73002B3FF45EAF4DF67A21ADF8B4
:10B570000C5002918DF80C2002A920469847A37A1E
:10B5800052E7C388C988A572172B38BF17238B428F
:10B5900028BF0B4628462381FFF71CFFC0B9E37A7A
:10B5A000002B7FF440AF2369002B3FF43CAF40F603
:10B5B000772122890291ADF80C2002A920469847F4
:10B5C000A37A31E74988E180AFE70988E180ACE7F9
:10B5D000FBF7C0FA144A154B19499B1ADB081B04E8
:10B5E000024643F00100FCF71DFBD8E70020FFF7FF
:10B5F000EFFE18B90123E372237B99E7112803D1E9
:10B600000123A372237B93E7FBF7A4FA064A074BB7
:10B6100007499B1ADB081B04024643F00100FCF7B4
:10B6200001FB237B84E700BFF8BD050060BE050079
:10B630006C93050088920500D492050014930500D0
:10B64000A0930500B0DF704766DF704730B329B3C1
:10B650000378DE2B20D070B50E46DE2256F8043B70
:10B6600043604FF6FF7304460D460270438020226C
:10B6700000210A302AF092FB002384F82A3023723A
:10B6800096E8030004F1500282E80300EA68A2652C
:10B6900084F84C30184670BD082070470E20704763
:10B6A00038B10378DE2B02D141800020704708209A
:10B6B00070470E20704700BF19B110B10B78DE2B18
:10B6C00000D070472DE9F04305464A8880889042B3
:10B6D00087B00C460BD02B88022B00F03781512B02
:10B6E00013D0012B00F01E8107B0BDE8F0830B7A68
:10B6F000002B40F0FD802B88022B00F02781F0D931
:10B70000112B00F03481512BEED19042ECD1AE7967
:10B71000022EE9D1AB7B052B00F03581062B00F022
:10B720004581042BE0D102AF1022384600212AF0D7
:10B7300035FB94F84C308DF808604FF4C072ADF8CA
:10B740000C20002B64D02A89A18D914200F08781C2
:10B75000012B5DD0E18D914200F08181022B57D009
:10B76000218E914200F07B81032B51D0618E91425A
:10B7700000F07581042B4BD0A18E914200F06F81B7
:10B78000052B45D0E18E914200F06981062B3FD018
:10B79000218F914200F06381072B39D0618F914254
:10B7A00000F05D81082B33D0A18F914200F05781CA
:10B7B000092B2DD0E18F914200F051810A2B27D027
:10B7C000B4F84010914200F04A810B2B20D0B4F81D
:10B7D0004210914200F043810C2B19D0B4F8441070
:10B7E000914200F03C810D2B12D0B4F846109142EA
:10B7F00000F035810E2B0BD0B4F84810914200F0C8
:10B800002E810F2B04D0B4F84A10914200F027810A
:10B8100094F82A20002A5ED029896089884200F0A5
:10B820001781012A57D0A089884200F01181022A8D
:10B8300051D0E089884200F00B81032A4BD0208A46
:10B84000884200F00581042A45D0608A884200F0D1
:10B85000FF80052A3FD0A08A884200F0F980062A9E
:10B8600039D0E08A884200F0F380072A33D0208B59
:10B87000884200F0ED80082A2DD0608B884200F0CD
:10B88000E780092A27D0A08B884200F0E1800A2AAD
:10B8900021D0E08B884200F0DB800B2A1BD0208C6B
:10B8A000884200F0D5800C2A15D0608C884200F0C8
:10B8B000CF800D2A0FD0A08C884200F0C9800E2ABC
:10B8C00009D0E08C884200F0C3800F2A03D0228D7B
:10B8D0008A4200F0BD8039466088FFF7B3FE002839
:10B8E0003FF402AF002384F84C3063689847FBE6CE
:10B8F0005031FFF7A9FE0346002840D011283DD063
:10B90000636898472B88022B1FD007D9112B29D0A9
:10B91000512B7FF4E9AEA8886288F6E6012B7FF40C
:10B92000E3AEA8882B7A012B7FF4DEAE62888242D8
:10B930007FF4DAAE237204F15001FFF785FE00B305
:10B94000112808BF2372D0D1CEE6A8882B7A012B0C
:10B950007FF4CAAE638883427FF4C6AE002384F8C6
:10B960004C30C1E6AA8863889A427FF4BDAE4FF698
:10B97000FF720023628084F84C30B5E60123237205
:10B98000C0E72072B0E6002102A810222AF006FAD1
:10B99000002302A960888DF80860ADF80C30FFF72D
:10B9A00051FE0028DAD063689847D7E702AF3846DF
:10B9B000102200212AF0F2F994F84C308DF808603A
:10B9C0000025ADF80C50002B4DD004F12A06B146ED
:10B9D0004FF0010839F8023FADF806308DF80480C9
:10B9E000A36D01A9204698476B1C1D4650B394F8DF
:10B9F0004C20ADF80C009DB2AA42EBD839466088C5
:10BA0000FFF720FE08B163689847BDF80C70002F5F
:10BA1000A4D194F84C30002BA0D0012536F8023F79
:10BA2000ADF806308DF80470A36D01A92046984743
:10BA300094F84C20ADF80C70ABB29A4205F10105B8
:10BA4000ECD88BE794F84C30ADB2AB42C2D8D5E716
:10BA50005A1C84F84C2004EB43032A899A8500235E
:10BA6000ADF80C3037E74FF4C07339466088ADF855
:10BA70000C30FFF7E7FD00287FF437AF34E600BF56
:10BA800072DF704773DF704774DF7047F8B50446A4
:10BA900000F2264681700D463046072200212AF02A
:10BAA0007DF9E38813B1A378012B69D0E379002BEA
:10BAB00063D194F82734002B73D194F82834002BE9
:10BAC0006FD194F82934002B6BD194F82A34002BD1
:10BAD00067D194F82B34002B63D194F82C341A1CC2
