:020000022000DC
:1060000000000120B5620200DD620200DF620200D2
:10601000E1620200E3620200E562020000000000AB
:10602000000000000000000000000000E1AC0200E1
:10603000E96202000000000001AD0200ED62020012
:106040009DD60200EF62020001DF0200E5EC0200D3
:106050007DE60200EF62020011DC0200DDE00200DA
:106060002DEB020085EB0200DDEB020015F40200CF
:10607000EF620200EF620200EF620200EF620200D4
:10608000EF6202000DAE0200EF620200EF6202005A
:10609000EF620200EF6202004D740300EF62020043
:1060A000EF620200EF62020035EC02008DEC0200AC
:1060B000EF620200EF62020000000000000000003A
:1060C000EF620200EF620200EF620200EF62020084
:1060D000EF620200EF620200EF62020000000000C7
:1060E00000000000000000000000000000000000B0
:1060F00000000000000000000000000000000000A0
:10610000000000000000000000000000000000008F
:10611000000000000000000000000000000000007F
:10612000000000000000000000000000000000006F
:10613000000000000000000000000000000000005F
:10614000000000000000000000000000000000004F
:10615000000000000000000000000000000000003F
:10616000000000000000000000000000000000002F
:10617000000000000000000000000000000000001F
:10618000000000000000000000000000000000000F
:1061900000000000000000000000000000000000FF
:1061A00000000000000000000000000000000000EF
:1061B00000000000000000000000000000000000DF
:1061C00000000000000000000000000000000000CF
:1061D00000000000000000000000000000000000BF
:1061E00000000000000000000000000000000000AF
:1061F000000000000000000000000000000000009F
:1062000010B5054C237833B9044B13B10448AFF3F0
:1062100000800123237010BDD02900200000000061
:106220009CAE030008B5034B1BB103490348AFF311
:10623000008008BD00000000D42900209CAE0300AF
:10624000154B002B08BF134B9D46A3F5803A002148
:106250008B460F461348144A121A12F0E9FB0F4BF3
:10626000002B00D098470E4B002B00D09847002001
:10627000002104000D000D48002802D00C48AFF3A7
:10628000008012F097FB2000290012F005FB12F0AD
:106290007DFB00BF0000080000000120000000009E
:1062A00000000000D0290020586B002000000000F2
:1062B000000000000649074A074B9B1A03DD043B18
:1062C000C858D050FBDC04F0D5F9FFF7B9FF000047
:1062D00090B00300F0220020D0290020FEE7FEE766
:1062E000FEE7FEE7FEE7FEE7FEE7FEE7FEE7FEE786
:1062F000F0B5324C85B004F5836002F09DFB04F2EA
:10630000144002F099FBD4E9013703EA0702D01CDC
:1063100004EB800114F8200010F0040044D003F1D5
:10632000020C0E7806F00306012E654635D0022ECB
:1063300002F1030621D004EB86010028F1D104EB21
:1063400082020133D26801923B4004EB830302F0E6
:106350000302012ADE6829D0022A23D1BDF80630C3
:106360009B090333360C05EB9305154802F070FBCF
:1063700000B16560304605B0F0BD4B880CEB93135F
:1063800007EA0302D11C03F1020C14F82100654650
:1063900004EB810100F00400CFE70B88C3F3831303
:1063A0006344EDE70026E0E79D1CC8E7BDF8043034
:1063B000C3F38313360C1D44D7E700BFBC2A00206B
:1063C000D02E00202DE9F04383B002AB002203F869
:1063D000012DDFF8DC90074618468846D9F80840BA
:1063E00000F008FED9E90132D9F800601344013306
:1063F0009B1B012B58D809F21C450121284602F0AD
:10640000F7FAFFF775FF0146284602F0F1FAD9E9DD
:106410000132D9F80010134401335B1A012BECD977
:106420000A400332052302319DF8070049F8223063
:10643000C9F8001000F004FE00211C4802F09EFA8A
:1064400080F31000731C234009EB830300043440E5
:10645000033440EA1740D86019F8243067F3C503C5
:1064600009F8243039F824306FF3891329F82430DF
:1064700059F8242068F39F221346012161F3010398
:106480006FF3820349F8242009F8243099F8203466
:106490001BB906E000F00EF818B1D9E900329A42B3
:1064A000F8D103B0BDE8F0833146B9E7D82E00201B
:1064B000BC2A00202DE9F047934C002384B0C4F897
:1064C0001834BFF34F8FD4E9015605EA0602D31CF6
:1064D00004EB830114F82330580719D527680B788B
:1064E00003F00303012B43D0022B03D14B88023569
:1064F00005EB931506EA0502D4F81804D31C04EB47
:10650000830128B9AF4239D914F823305B07E6D4A8
:1065100004EB82026B1CD2680192334004EB8303CC
:1065200002F00302DB680293022A05F1020700F081
:106530008D80012A26D0D4F810543DB12B6828460E
:106540009B689847EB681D68002DF7D16F48704B2A
:106550007049C01AC008000440F00200FFF732FF83
:10656000D4E90030C01A18BF012004B0BDE8F0879C
:106570000B880235C3F383131D44BBE7676004B087
:10658000BDE8F087BDF804206348C2F38313062BEF
:1065900028BF062363F3891202339900ADF8042063
:1065A00003F09CFD80460028C5D003F0F3FD0023D6
:1065B000082201A9404603F013FEBDF8043013F48D
:1065C000707F00F09F806FF0010AAAEB050A082592
:1065D00006EA070103312B46042204EB8101404601
:1065E00003F0FEFDBDF8043007F101090AEB0902D2
:1065F000C3F3831393424F4605F10405E8D8D4F85A
:106600001834002B68D1D4F8105465B1EB685A796E
:1066100028464146002A5BD02B681B689847EB68E8
:106620001D68002DF2D1404603F0B8FD04A80023F8
:1066300000F80D3D00F0DEFCD4F818340BB9C4F8B6
:1066400004909DF8030000F0FBFC89E7BDF80630DC
:1066500031484FEA93194D46502D28BF502565F318
:106660008F1305F10801ADF8063003F037FD8046C1
:1066700000283FF460AF26EA070A0AF1010A03F096
:1066800089FD4FEA8A0A0023082201A9404603F047
:10669000A7FD55452BD9EBB2BAF1000F20D006EA81
:1066A0000701A3EB0A03033104EB8101DDB252467B
:1066B0000823404603F094FD2A460AF108031749CF
:1066C000404603F08DFD09F1030907EB990996E7B0
:1066D0001D68002D9AD1A6E7404603F05FFD3FE715
:1066E0002A4608230D49404603F07AFDEBE706EA07
:1066F0000701033104EB81012A460823404603F0D9
:106700006FFDE0E7B9467AE7BC2A0020D0AF03006E
:1067100078AF03006C8A030050AF0300C82A002042
:106720002DE9F04782B002AB002403F8014DDFF8F9
:10673000ECA00746184691468846DAF8084000F073
:1067400059FCDAE90132DAF80060134401339B1B8B
:10675000022B5ED80AF21C450121284602F048F9B6
:10676000FFF7C6FD0146284602F042F9DAE9013298
:10677000DAF80010134401335B1A022BECD90A40FB
:106780000332033145239DF807004AF82230CAF846
:10679000001000F055FCB31C23400AEB83030021DA
:1067A0001D48C3F80C9002F0E9F880F31000731C48
:1067B00023400AEB830300043440033440EA1740CB
:1067C000D8601AF8243067F3C5030AF824303AF881
:1067D0002430012161F389132AF824305AF8242047
:1067E00068F39F22134661F301036FF382034AF8B3
:1067F00024200AF824309AF820341BB906E0FFF769
:1068000059FE18B1DAE900329A42F8D102B0BDE877
:10681000F0873146B3E700BFD82E0020BC2A002005
:106820002DE9F04F83B002AD002405F8014D3B4C3B
:106830008046284693469A468946A56800F0DAFBCA
:10684000D4E90132276813440133DB1B032B63D8DF
:1068500004F21C460121304602F0CAF8FFF748FD59
:106860000146304602F0C4F8D4E9013221681344ED
:1068700001335B1A032BEDD90A400332852344F818
:10688000223004319DF80700216000F0D9FBBA1CCA
:10689000FB1C2A402B4004EB820204EB8303002103
:1068A0001F48C2F80CB0C3F80CA002F067F880F3E0
:1068B00010007B1C2B4004EB830300043D40033598
:1068C00040EA1840D86014F8253068F3C50304F88E
:1068D000253034F82530022262F3891324F825305C
:1068E00054F8252069F39F221346012161F3010327
:1068F0006FF3820344F8252004F8253094F82034FF
:106900001BB906E0FFF7D6FD18B1D4E900329A4270
:10691000F8D103B0BDE8F08F3946ADE7BC2A0020BE
:10692000D82E00202DE9F04F83B002AE002406F8E7
:10693000014D3E4C8046304693469A46A5688946AE
:1069400000F058FBD4E90132276813440133DB1B04
:10695000042B69D804F21C460121304602F048F8A5
:10696000FFF7C6FC0146304602F042F8D4E9013296
:106970002168134401335B1A042BEDD90A4003321A
:10698000C52344F8223005319DF80700216000F04E
:1069900057FBB81CFA1C28402A403B1D2B4004EB37
:1069A000800004EB820204EB8303C0F80CB00021EA
:1069B000C2F80CA01E480C9ADA6001F0DFFF80F3E9
:1069C00010007B1C2B4004EB830300043D40033587
:1069D00040EA1840D86014F8253068F3C50304F87D
:1069E000253034F82530032262F3891324F825304A
:1069F00054F8252069F39F221346012161F3010316
:106A00006FF3820344F8252004F8253094F82034ED
:106A10001BB906E0FFF74EFD18B1D4E900329A42E7
:106A2000F8D103B0BDE8F08F3946A7E7BC2A0020B3
:106A3000D82E00202DE9F04F87B006AE002406F8CE
:106A4000114D454C109F0497CDE90223804699468D
:106A50003046119B05939246A5688B4600F0CAFA12
:106A6000D4E90132276813440133DB1B052B70D8AE
:106A700004F21C460121304601F0BAFFFFF738FC52
:106A80000146304601F0B4FFD4E9013221681344D5
:106A900001335B1A052BEDD90A40033240F205138E
:106AA00044F8223006319DF807002160FE1C00F0FA
:106AB000C7FAB91C29402E403A1D2A4004EB810137
:106AC00004EB86067B1D2B4004EB8202C1F80CA070
:106AD00004EB8303C6F80C90109ED6600021119A37
:106AE0001E48DA6001F04AFF80F310007B1C2B4047
:106AF00004EB830300043D40033540EA1840D860AE
:106B000014F8253068F3C50304F8253034F825302F
:106B1000042262F3891324F8253054F825206BF3FE
:106B20009F221346012161F301036FF3820344F8AE
:106B3000252004F8253094F820341BB906E0FFF72F
:106B4000B9FC18B1D4E900329A42F8D107B0BDE8D7
:106B5000F08F3946A0E700BFBC2A0020D82E0020C5
:106B60002DE9F04F87B006AE002406F8154DCDE9AB
:106B70000123484C109F03979946119B049380462C
:106B8000129B059330469246A5688B4600F032FA78
:106B9000D4E90132276813440133DB1B062B77D875
:106BA00004F21C460121304601F022FFFFF7A0FB52
:106BB0000146304601F01CFFD4E90132216813443C
:106BC00001335B1A062BEDD90A40033240F245131C
:106BD00044F8223007319DF8030021603E1D00F08B
:106BE0002FFAB91CF81C294028402E407A1DBB1DE5
:106BF0002B402A4004EB810104EB800004EB860665
:106C000004EB820204EB830C109BC1F80CA0C0F8CB
:106C10000C90F360119BD3600021129B1E48CCF8AE
:106C20000C3001F0ABFE80F310007B1C2B4004EB1A
:106C3000830300043D40033540EA1840D86014F84F
:106C4000253068F3C50304F8253034F825300522D3
:106C500062F3891324F8253054F825206BF39F2222
:106C60001346012161F301036FF3820344F82520E9
:106C700004F8253094F820341BB906E0FFF71AFC1D
:106C800018B1D4E900329A42F8D107B0BDE8F08FCC
:106C9000394699E7BC2A0020D82E0020044BD3E9BE
:106CA00000239A4201D0FFF705BC0020704700BFC7
:106CB000BC2A002038B5094BD3F81044012583F8CD
:106CC00020544CB1E3685D71236820465B689847A7
:106CD000E3681C68002CF5D138BD00BFBC2A002039
:106CE00000B585B000230390194601AA44F20100C3
:106CF000CDE9013300F036F805B05DF804FB00BFC4
:106D000030B482B001248DF80740154B9DF8075030
:106D1000186044F20104A04259609A6014D044F211
:106D20000201884208D072B69DF80730002BFBD1D3
:106D300062B602B030BC7047DA60DA6812889A61D5
:106D4000DA685268DA61EEE71A611A6992685A6184
:106D50001A6912689A611A695268DA61E3E700BF3A
:106D6000E02E00202DE9F041054684B00F4616467E
:106D700072B6FFF79FFFFFF791FF0028FBD1274B6B
:106D8000274CE41AE40841F2010324049D4244F034
:106D900001043DD02FD944F201039D4216D044F2A4
:106DA00002039D422ED12046338872681D49FFF7A9
:106DB00037FD1D4B1B68DB0700D500BE3246394648
:106DC000284604B0BDE8F041FFF79ABFD6F8088026
:106DD000404603F083FA33681449CDE901377368FC
:106DE0000093424603462046FFF7BAFE204610496C
:106DF000FFF7E8FADDE7012D04D120460D49FFF742
:106E0000E1FAD6E720463A460B49FFF789FCD0E77E
:106E1000204632460949FFF783FCCAE778AF0300F2
:106E2000D0AF0300E08A0300F0ED00E0FC8A03002D
:106E3000248B0300908A0300388B0300B08A030080
:106E400010B506F03FFA027B4AB1427B81680346E7
:106E500082F0010200681A73BDE81040084710BDB7
:106E60000020704770B582B004682AB3237B0BB949
:106E7000636813B1082002B070BD15460E4610229B
:106E80001946204611F0D4FD002E0CBF012200222D
:106E90000B4B6273A56014BF0122002200934FF4D4
:106EA0007A712346074806F087F90028606014BF0E
:106EB00000200E2002B070BD072002B070BD00BFE0
:106EC000416E0200508B03002DE9F041456884B00B
:106ED000002D54D0077B77BB04460E462260EFF3AB
:106EE000058363B30DF11008009748F8047D0A4646
:106EF00043460921284606F0ADF9012803D00420B5
:106F000004B0BDE8F08105F09FF9009702464346C2
:106F10002846062106F09EF90128F0D1039B43B1D3
:106F2000194B4FF080525A6040BFBFF34F8FBFF3F1
:106F30006F8F01232373002004B0BDE8F081284641
:106F400006F0B4F907460028F5D14FF002083246A2
:106F50000346CDF800800421284606F07BF901287D
:106F60000646CCD105F06AF9CDF8008002463B46D2
:106F70003146284606F06EF90128DAD0BFE708202E
:106F800004B0BDE8F08100BF00ED00E0416869B3E6
:106F900010B5044684B0EFF3058363B902220846B6
:106FA000009203211A4606F055F901281BD1002052
:106FB000207304B010BD04AB002243F8042D084632
:106FC0000092082106F046F901280CD1039B002B02
:106FD000EDD0074B4FF080525A6040BFBFF34F8F48
:106FE000BFF36F8FE3E7042004B010BD08207047A3
:106FF00000ED00E070B4EFF3108472B60D4B9A68A8
:10700000AAB90D490D4E01259D60D1F8805035403B
:107010001D60C1F88060D1F884505D604FF0FF338F
:10702000C1F88430027004B962B670BC70470123A5
:107030000370F8E78C6A002000E100E0FC06FFBD69
:10704000094B9A687AB170B910B4EFF3108172B637
:10705000064A1C6814605C685460986001B962B6A6
:107060005DF8044B704770478C6A002000E100E037
:10707000F0B5344D344EB5F802C06A684FEA8C075B
:1070800007EB0C0306EB830383B0596801F58054CA
:10709000002A53D05388033302EB8302944231D940
:1070A000136801332ED05388033302EB8303A342CA
:1070B00028D84FF6FF7E9088704517D01088A8B169
:1070C0009068013012D06A605388204C2048A6880E
:1070D0002168033300249BB200949B0001EB8601DE
:1070E00003242C7002F064FB03B0F0BD9C4209D96C
:1070F0001A6801321A4605D05888033003EB800322
:107100009C42D8D2674406EB8706F3686BB10F4BFD
:107110000F48196802229A800524002301222C704E
:1071200003B0BDE8F04002F0E1BB094804240122AD
:107130002C7003B0BDE8F04002F0D8BB01F10802AA
:10714000ACE700BF242F0020402F00200830002093
:10715000BC290020F0B443681BB1394AD468A3426B
:1071600049D20023374F0B807A684FF0010C02F5AB
:1071700080554FF6FF76083295420ED8BCF1020FCB
:10718000A1F800C007F1140757D07A6802F58055BE
:10719000083295424FF0020CF0D913680133EDD05C
:1071A0005388033302EB83039D42E7D39488B442B0
:1071B0000DD014885CB19468B4F1FF3F07D0036828
:1071C000A34211D05388033302EB8302D4E79D42DC
:1071D000D4D91A6801321A46D0D05C88033403EB44
:1071E00084039D42E2D2C9E7174B42601B890381A9
:1071F0000120F0BC704712699342B2D813F0030526
:10720000AFD1114A048912899442AAD104689A68BC
:107210009442A6D10B484268934203D902F58052AA
:10722000934207D38269934207D902F58052934271
:1072300003D201250D800120DBE70020F0BC704760
:10724000BC290020402F0020242F00202DE9F04FE2
:107250009F4F8BB004464FF6FF783E68002E00F03B
:10726000C2803278531E052B00F2B680DFE803F0AF
:10727000593B3B1E1E03002C40F0BC80DFF874C25B
:107280009CF80C209CF80030002A00F05981013B4A
:107290008CF80C40062B00F29F80DFE813F0AD0362
:1072A000BC02B801DB019D00CE02BF02002C40F001
:1072B000A1803379012B00F07781C0F04E8105ADBC
:1072C000022B0594C5E902442C6100F09C8048F231
:1072D0000E6006903378023B042B33D8DFE803F0CE
:1072E00058684C2C6400B6F81490B17D002C40F026
:1072F00007814FEA8904774D04EB090305EB83030B
:10730000B3F808A05B6803EB8A0A062900F21C8325
:10731000DFE811F04002B801D801EB01FF011A02C9
:107320003302002C40F0C8803379032B00F28E80AA
:10733000DFE803F0B6A2976B04238DF81430F388CE
:10734000ADF82030644C04F1100654F8043B284694
:1073500003B19847A642F8D16049614800243C60D7
:1073600001F08AFA01215F4801F04EFB00287FF40A
:1073700074AF0BB0BDE8F08F03238DF81430F388A1
:10738000ADF820303389ADF82230F3680793D9E7A0
:1073900001238DF814303389ADF82030B388ADF86F
:1073A0002230F3680793CDE705238DF81430C9E741
:1073B00002238DF814303389ADF82030B388ADF84E
:1073C0002230F3680793B37DA3F10603B3FA83F386
:1073D0005B098DF82430B5E705AD0023AB6005935C
:1073E000C5E9033373E73D493D4801F017FA064606
:1073F000386036E705AD0023AB600593C5E903337C
:107400004FF4064065E7204663E7374C374A21686A
:107410003748304D4FF0000986F804900823CDF826
:10742000009002F0C5F9334B26685B88A18803EB16
:10743000830305EB830205F823905368236002233E
:1074400056601181A380002893D03E682A4A05AD7A
:10745000002353600593C5E902332B6148F20D60A8
:1074600037E7214A224811680023022433719480AF
:10747000012202F03BFAE6E7164D2B78022B00F0D2
:10748000DA822B7D022B00F0BA821B4B05AD002067
:1074900001221A7005905860C5E90200286118E7BA
:1074A000114B164A196812480123337100230093C7
:1074B000082302F07DF9C6E705AD0F4A00235360AB
:1074C0000593C5E902332B614FF4064001E700BF85
:1074D0003C2F0020402F00200C2F0020342F0020B4
:1074E000F42F00200430002008300020588B0300C7
:1074F000BC290020242F00201C2F0020608B0300BB
:107500000229F2887FD94FEA8904B54D04EB0901BD
:1075100005EB8101D31C0A8913440B81F28804EB2B
:10752000090105EB810105AD4B89033B9B1A002244
:107530004B81AA600592C5E903224FF40640C8E6D4
:10754000072B00F2EB81DFE813F0B201E901E9015A
:107550005B019F01690169018B0102233371CDE950
:10756000064405ADF368059328460DF11201FFF7B7
:10757000F1FD002800F02A8106999A4A8B88F38051
:107580000B883381984800940423BDF8124002F020
:107590000FF9002840F04382914B04EB840403EB85
:1075A000840401232374E4E6904B1B78002B00F045
:1075B000FF80DFF83CE2BEF80490B9F1010F15D866
:1075C000874D039409EB890205EB8202043212F81D
:1075D000043C002B00F0BC8109F1010399B20129A0
:1075E0009946AEF8043002F11402F0D905AD082234
:1075F00000217F4811F01CFA0020A8600590C5E921
:1076000003003E6865E6764D4FEA890487E77948CE
:10761000DCF804208488016853887348033301EB45
:107620008401002400949BB203249B008CF800404A
:1076300002F0BEF800283FF49CAE05AD002341F6F1
:107640001D523E68AB600593C5E90333904208BF05
:1076500018463EE6BCF80230614D03EB830305EBB0
:107660008305EB68002B00F0BC81624B5E48196813
:1076700002229A8005228CF800200023012202F0C9
:1076800035F9D7E7032A0CBF052306230022B3757B
:107690000AF104010092042306F10802524802F0A4
:1076A00087F800283FF465AEB37DF288022B48F2DC
:1076B0000D6065D8A14405EB89056B89033B9B1AD6
:1076C0006B81BAE733694848002B14BF03230123B9
:1076D0000022B3750AF108010092042306F10C029E
:1076E00002F066F80028DFD143E6F38832693E48AD
:1076F0004FF0010C86F816C04FF0000C0AF10C0197
:107700009B00CDF800C002F053F800283FF431AEE2
:10771000CAE7394BB26939491A604FF0000B184675
:10772000C3F804B0FFF716FD002800F07C810223A7
:10773000B37504235146CDF800B0F2182A4802F080
:1077400037F80028B0D114E62C4B2B4AB3F800A030
:1077500051682548234A00234FF0060C86F816C0CE
:107760000093042302F024F800289DD10AEB8A0A32
:1077700005EB8A0501232B74FBE5F28841F61D50C9
:1077800004EB090105EB8101D31C0A8913440B8129
:10779000F2888FE702230022B3750423009251463A
:1077A000F218114802F004F800283FF4E2AD7BE73C
:1077B00005AD082221460E4811F03AF90594C5E9B5
:1077C00002442C613E6848F2016082E548F209609B
:1077D0000023C5E90033C5E902332B6179E500BF19
:1077E000402F0020548B0300BC2900201C2F0020B8
:1077F0001830002008300020002F00201430002016
:10780000904ADCF804109388498803330B44022122
:1078100093808CF80010FFF72BFC0BE7894B8A4A0A
:1078200019688A4800230093CCF8043007238CF8A9
:107830000030082301F0BCFFFCE6BCF80220844DB8
:107840009300134405EB8305062000236968814AF1
:1078500000938CF8000008237C4801F0A9FFE9E6BA
:1078600001238CF800309CF80A30002B3AD0784D78
:10787000EB6800228CF80A20A3BB2A7C92B3ACF8F8
:107880000230FFF7F5FBD5E6BCF80220704D6D4CD9
:107890009300991805EB810120684E68B4F804E064
:1078A000486002202660A1F808E0A080C9E7684D82
:1078B000BCF808102A7D2B78B2FA82F25209013105
:1078C000B3FA83F35B098CF80B20ACF808100022A4
:1078D00001218CF80A30ACF802208CF80C208CF8CE
:1078E0000010C2E79CF80B3053B1594D2B6A0022AF
:1078F0008CF80B2023B995F824300BB10123BEE797
:1079000005AD0020A8608CF80000ACF80200CCF8AF
:1079100004000590C5E903003E68DAE4013B062B4C
:107920003FF65AAD01A252F823F000BFF9790200E8
:10793000177802000F76020055760200D973020014
:107940003B7802001D780200F28848F20E6017E7CB
:107950001368DEF8001003F5805C03F1080A0029C3
:1079600048D04B88033301EB83018C4503D8039B3C
:10797000CEF8003030E60B680133F8D04B88033383
:1079800001EB83039C45F2D3888840451CD0B1F8B5
:1079900000B0BBF1000F17D08C68013414D0F3880D
:1079A000CEF800108342DAD1002300932A4A2748F8
:1079B000042301F0FDFE00283FD109EB890905EB06
:1079C000890501232B74D4E49C45D0D91968013171
:1079D0001946CCD05888033003EB80039C45D3D2A2
:1079E000C5E704228CF8002069681848012201F0DC
:1079F0007DFF1FE65146B8E79CF80A3035E70123C2
:107A00009A001A4405EB820300205968009008236D
:107A100005F822000F4A0D4801F0CAFE13E53E6842
:107A200048F20D60D4E605AD0590C5E90200286175
:107A300048F209604DE40023E2E73E6848F20D6039
:107A400005ADC5E608300020608B0300BC2900208E
:107A5000402F0020588B0300548B03004068FFF731
:107A6000F5BB00BF38B5094B1A68042A0AD01D6857
:107A7000074C02460121184644F8252000F0B8FFC3
:107A8000002038BD48F20B6038BD00BF1030002028
:107A90000C2F00202DE9F04FAF4C8BB02278002343
:107AA000CDE90533CDE90733099372B1AB4C04F14D
:107AB000100554F8043B05A803B19847A542F8D136
:107AC000002528460BB0BDE8F08F201D02F0FF0610
:107AD00000F0A6FF07460028F2D140F6F8731B68B5
:107AE0005A1C00F0AD804FF0805211695269DFF8E6
:107AF00098829B49C8F810304046A3F540530022B5
:107B0000C8F80C3001F026FE05460028D9D11C2308
:107B10008C2294499448DFF874A200F009FED8F84A
:107B20000C90009609F5405349464FF0030B2A4646
:107B300099460B6800295AD08C48834200F08B800C
:107B4000013359D001F5805302EB82000AEB800C1F
:107B50004FF0030E0BF1FF3B01320AF820E01FFA51
:107B60008BFB92B2CCF8041099451946E1D1BBF1D8
:107B7000010F40F2DE80FFB2022F00F0DA80062F04
:107B800000F0DA80002F00F0D48004A9764800F0DD
:107B900009FE1C220446002110F04AFF002C00F0D0
:107BA00061810123013F23700A2F09D8DFE807F024
:107BB00019081908160816081C061C000223237150
:107BC00004A9694800F01AFE0121694800F004FF89
:107BD00000287FF475AFFFF739FB72E701232371AB
:107BE000EEE700232371EBE703232371E8E7581C3A
:107BF00002D05E488342A5D1081D01F58053066876
:107C0000013600F104009FD18342F8D15948006841
:107C1000002800F0208102EB82000AEB800E4FF07A
:107C2000020C554E0AF820C002F101087280CEF80D
:107C300004101FFA88F2AEF808C047F0010793E776
:107C40004E4B4FF080521B68116952695D1C08BF92
:107C500002FB01F34BE74868494EB04200F09A80BE
:107C6000DFF82CC16045C2D1009B93B102EB8203C7
:107C70004FF0020C0AEB83000AF823C03D4B3E4E46
:107C80001B68728002F1010E43601FFA8EF2A0F8A9
:107C900008C08868374B4FF0020E01301960A3F816
:107CA00004E001F1080C01F580532DD0498903311E
:107CB0000CEB8100834236D370464FF6FF78019279
:107CC000BCF80460464510D0BCF800606EB1DCF82A
:107CD00008200292561C08D02A4ED6F800E096459D
:107CE00003D23260BCF8021003310844214980B24B
:107CF0008880BCF8021003310CEB810C634506D878
:107D00000228019A40F0B18004210F432CE7DCF8EF
:107D100000100131F4D0BCF8021003310CEB8106E5
:107D2000B342CDD2019A13484FF48061818008217B
:107D3000EBE748F20A65C4E6084D012200232270F1
:107D400005F11006636055F8043B05A803B1984798
:107D5000AE42F8D1B4E600BF1C2F00200C2F00204B
:107D6000708D0300682F0020F42F0020DEC0ADDEF0
:107D70000430002008300020242F002014100010B0
:107D8000FE011EF1382F0020BC290020402F0020CA
:107D9000FF011EF19300019313440AEB830E0020B0
:107DA0000AF823004FF0020CCEF80410AEF808C019
:107DB0008E68013601F5805301F1080010D0498921
:107DC00001F1030800EB8808434537D201991144BB
:107DD0000AEB81014FF480604FF001060E740881B8
:107DE000013292B247F00207BEE606885EB38668AB
:107DF0000296013627D01E4E0396D6F80080029ECA
:107E0000B04505D231461A4EBEF808C031604188EF
:107E10008C440CF1030C1FFA8CFCAEF808C04188AE
:107E2000033100EB81008342DAD901680131D7D0F8
:107E30004188CE1C00EB8606B342C7D386884FF636
:107E4000FF784645D1D14FF001018EF810104188DE
:107E5000BEF808C0DCE7074E022031600121B08087
:107E60000091EAE648F207652BE608214DE700BFDE
:107E7000382F00200830002010B309B370B582B04D
:107E80000C460DF106010546FFF764F9A0B1BDF8F7
:107E900006000D4B6E6800EB800003EB80000121B3
:107EA0000C3000F0A5FD26606B6801220C33002029
:107EB0006360AA7202B070BD48F2096002B070BD82
:107EC00048F20460704700BF402F0020F0B110B5A9
:107ED00082B00DF106010446FFF73CF990B1BDF800
:107EE00006300E4A03EB830302EB8303DA6882B1A8
:107EF000A27A72B1DA680021013A0846DA60A1720A
:107F000002B010BD48F2096002B010BD48F2046032
:107F1000704748F2056002B010BD00BF402F00203E
:107F20004C4B1B78002B34D0002938D00A884FF6F0
:107F3000FF739A422AD04B8843B34B689B0731D1D9
:107F40002DE9F043B1F8088008F103039BB240F239
:107F5000FE32934283B01FD83F4A17783FB9568903
:107F6000148934441C44A4B2B4F5806F1DD9147D27
:107F70003CB9D68B948B34441C44A4B2B4F5806FC6
:107F800064D948F2066003B0BDE8F08348F20360AC
:107F9000704748F20160704748F20860F3E748F222
:107FA0000460704748F202607047BC464FEA8C0993
:107FB000E14402EB890933440C46054601A92748F0
:107FC000A9F80A3000F0EEFB1C220646002110F052
:107FD0002FFD5EB302234FF00009B782337086F89D
:107FE00016906368336101211D4800F001FDF060C7
:107FF000238833816388B38001A9A6F80A90A6F884
:108000000680164800F0FAFB45B1C5F80490F26806
:10801000144B2A601B8985F80A902B810121124894
:1080200000F0DAFC044668B10020ACE7B9F80A3089
:10803000C8F57F4808F1FD089844A9F80A8048F27D
:108040000760A0E7FFF702F920469CE70127BC463E
:10805000ACE700BF1C2F0020402F0020F42F002091
:10806000382F0020242F002004300020002839D091
:108070004C4B1B78002B32D0002933D00A884FF6A6
:10808000FF739A4234D04B88002B31D04B689B074A
:108090002BD12DE9F043B1F8089009F103039BB20D
:1080A00040F2FE32934283B025D83F4A15783DB95D
:1080B000578914893C441C44A4B2B4F5806F1DD97F
:1080C000147D3CB9D78B948B3C441C44A4B2B4F5CA
:1080D000806F62D948F2066003B0BDE8F08348F2D1
:1080E0000160704748F20460704748F202607047D0
:1080F00048F20360704748F20860EDE7A846AC46D6
:108100004FEA8C05654402EB85053B4406460C4668
:1081100026486B8101A900F045FB1C22074600217F
:1081200010F086FC57B300250323A7F814803B709A
:10813000BD7563683B6101211D4800F059FCF86082
:1081400023883B816388BB800423A7F80690BB7516
:108150003368BB6101A97D81144800F04FFB756055
:10816000FA68144B32601B89B572338101211248C1
:1081700000F032FC044660B12846ADE76B89C9F5D2
:108180007F4909F1FD099944A5F80A9048F2076072
:10819000A2E7FFF75BF820469EE74FF00108C446D0
:1081A000AEE700BF1C2F0020402F0020F42F00203E
:1081B000382F0020242F0020043000201A4B1B7879
:1081C0002BB34FF6FF7398421ED070B582B001A951
:1081D0000446164800F0E6FA1C220546002110F07D
:1081E00027FCBDB105230126EC8001A92B702E715F
:1081F0000E4800F003FB31460D4800F0EDFB04464D
:1082000060B1002002B070BD48F20360704748F2D0
:108210000160704748F2076002B070BDFFF716F8C2
:10822000204602B070BD00BF1C2F0020F42F00209C
:10823000043000201A4B1B78EBB110B582B001A9B5
:10824000184800F0AFFA1C220446002110F0F0FBA1
:1082500014B30623237001A9124800F0CFFA124B81
:108260001A785AB90121114800F0B6FB044670B1E2
:10827000002002B010BD48F20160704701220121C8
:108280000A481A7300F0A8FB04460028F0D1FEF754
:10829000DDFF204602B010BD48F2076002B010BDFD
:1082A0001C2F0020F42F0020242F00200430002059
:1082B0002DE9F0473A4C2478002C6AD06AB363B3B6
:1082C000B3F804C0BCF1010F67D8364F0CEB8C0437
:1082D0000CF1010C8A4607EB84071FFA8CFC4FF661
:1082E000FF7E4FF000083C786CB91C687D6805F58E
:1082F0008056002C4AD06588033504EB8504A642DD
:108300000FD8C3F80080BCF1020FA3F804C007F136
:10831000140742D04FF0020CE5E748F20460BDE8D4
:10832000F08725680135ECD06588033504EB8505B9
:10833000AE42E6D3B4F80490F14518D0B4F80090FA
:10834000B9F1000F13D0A168013110D01C60A588CD
:108350008542CBD125885545C8D1A16811601968DF
:10836000114B51601B8913810020BDE8F087AE429C
:10837000C7D92C6801342C46C3D0B5F8029009F156
:10838000030905EB8905AE42D4D2BAE705F108042A
:10839000B5E748F20160BDE8F08748F20960BEE742
:1083A0001C2F0020402F0020242F0020384B1B784A
:1083B000002B64D071B36AB32DE9F0439688012E87
:1083C00063D8344F06EB860307EB830701363B780F
:1083D0001FFA86F94FF6FF7C4FF0000E5BB1B9F142
:1083E000020FA2F8049007F114074ED03B784FF02B
:1083F0000209002BF3D113687C6804F58055002B2B
:1084000040D05C88033403EB84039D4205D8C2F856
:1084100000E0E4E748F2046070471C680134F6D0DD
:108420005C88033403EB8404A542F0D3B3F80480E2
:10843000E04515D0B3F80080B8F1000F10D09E6869
:1084400001360DD013601C888442D5D19B680B6027
:108450001268114B4A601B890B810020BDE8F08334
:10846000A542D4D9236801332346D0D0B4F8028082
:1084700008F1030804EB8804A542D7D2C7E748F205
:108480000160704704F10803BFE748F20960E5E7BF
:108490001C2F0020402F0020242F0020384B1B7859
:1084A000002B64D071B36AB32DE9F0439688012E96
:1084B00063D8344F06EB860307EB830701363B781E
:1084C0001FFA86F94FF6FF7C4FF0000E5BB1B9F151
:1084D000020FA2F8049007F114074ED03B784FF03A
:1084E0000209002BF3D113687C6804F58055002B3A
:1084F00040D05C88033403EB84039D4205D8C2F866
:1085000000E0E4E748F2046070471C680134F6D0EC
:108510005C88033403EB8404A542F0D3B3F80480F1
:10852000E04515D0B3F80080B8F1000F10D09E6878
:1085300001360DD013609C888442D5D19B680B60B6
:108540001268114B4A601B890B810020BDE8F08343
:10855000A542D4D9236801332346D0D0B4F8028091
:1085600008F1030804EB8804A542D7D2C7E748F214
:108570000160704704F10803BFE748F20960E5E7CE
:108580001C2F0020402F0020242F002020B119B1E3
:1085900003680B600020704748F20460704700BF1A
:1085A0002DE9F84F5F4B1B78002B00F0A7800446A5
:1085B000002800F0B2801222002110F039FADFF812
:1085C00068E1608821896589DFF860A14FF0000CBF
:1085D00003236746724623804FF0010884461089C2
:1085E0005389D2F80490184480B2B9F1000F04D036
:1085F000D9F80030534500F085802388013B238063
:10860000BB003B440EEB83030544D3F80C90A389D5
:10861000CC44A4F802C0B2F80A906581C0F580602D
:1086200080B28342494438BFA0812181D2F80490AE
:10863000D9F80860013609F1080309F5805023D004
:10864000B9F80A9009F1030903EB8909484542D3B7
:10865000B3F804904FF6FF76B1451AD0B3F8009006
:10866000B9F1000F15D09E68013612D0B4F804900D
:1086700009F10109A4F80490B3F8029009F1030983
:1086800003EB890398421BD81432AFB30020BDE836
:10869000F88FB4F806B0B4F80E900BF1010BA4F803
:1086A00006B0B3F802B009F10309D944A4F80E905A
:1086B000B3F8029009F1030903EB89039842E3D967
:1086C0001E680136E0D0B3F8029009F1030903EB0C
:1086D00089094845BCD2B4F80EB0B4F8069084F8C5
:1086E0001080C31A0BEBA30309F10109E381A4F87D
:1086F00006901432002FC9D1012770E748F20160BB
:10870000BDE8F88FD9F8043003F16E6303F5FF3349
:108710000233012B7FF674AF6FE748F20460BDE8C7
:10872000F88F00BF1C2F0020402F0020DEC0ADDEE0
:1087300099B110B4B2FBF3F403FB1424A4B244B90E
:10874000C0E9001484608281C38120465DF8044B37
:10875000704709205DF8044B70470E20704700BF3A
:1087600082B050E8022FC188B2EB324F4FF00003C5
:1087700017BF92B241EA014142EA014104E0426876
:10878000B2EB324F08BF012340E80212002AE8D1C1
:108790008DF807309DF80730002B0CBF112000200A
:1087A00002B0704730B482B050E8013F9DB2C48936
:1087B00025448489A54228BF2D1B0489A54202BFF8
:1087C000BFF32F8F002207E0C5EA030540E80154FC
:1087D000002CE9D14FF001028DF803200193019B99
:1087E0009DF803200B602AB10B880068184402B082
:1087F00030BC704702F0FF031846F8E70A884B8840
:108800009A4201D00020704750E8012FC2EA02428C
:1088100040E80123002BF7D10120704730B482B02B
:1088200050E8023F1FFAA3F5C488A54202BFBFF378
:108830002F8F00220DE0C48925448489A54228BFDA
:108840002D1BC3EA054540E80254002CE8D14FF047
:1088500001028DF803200193019B9DF803200B601A
:108860002AB14B880068184402B030BC704702F04F
:10887000FF031846F8E700BF0A884B889A4201D0E8
:108880000020704750E8022FC2EA224240E802234B
:10889000002BF7D10120704701F01F024B09012185
:1088A00000EB8300914000F07FB800BF10B50123BA
:1088B00001F01F04490900EB810003FA04F100F004
:1088C00067F8E04000F0010010BD00BF01F01F029A
:1088D00001234909934000EB8100D94300F070B8AF
:1088E0004B0901F01F0150F82300C84000F00100BF
:1088F000704700BF2DE9F84F01F1FF394FEA5913D6
:1089000000F104090F46064609EB830904460025D9
:108910004FF0010823686FEA030B9BFAABFBBBFA2D
:108920008BFBBBF1200F20D0AB445F450CD81CE083
:108930002368DB4393FAA3F3B3FA83F3202B05EB0D
:10894000030B12D05F4510D90BF01F0A4FEA5B10E2
:1089500008FA0AF106EB800000F01AF820FA0AF093
:10896000C307E5D45846BDE8F88F04344C4505F1FB
:108970002005CFD1BB465846BDE8F88F50E8002F00
:108980000B4640E8003C9CF0000FF7D110467047C2
:1089900050E8002F42EA010340E8003C9CF0000F41
:1089A000F6D11046704700BF50E8003F43EA01028D
:1089B00040E8002C9CF0000FF6D11046704700BF35
:1089C00050E8003F03EA010240E8002C9CF0000F51
:1089D000F6D11046704700BF50E8002F02EB0103AC
:1089E00040E8003C9CF0000FF6D11046704700BFF5
:1089F00050E8003F03EB010240E8002C9CF0000F20
:108A0000F6D11046704700BF50E8003FA3EB0102CB
:108A100040E8002C9CF0000FF6D11046704700BFD4
:108A2000012350E800CF4CEA030240E8002191F016
:108A3000000FF6D160467047012350E8002F42EA4C
:108A4000030C40E800C191F0000FF6D1604670477A
:108A5000002350E800CF0CEA030240E8002191F027
:108A6000000FF6D160467047B8B130B4D0E90112BA
:108A7000521A0468D2B2531E2160DBB242B10168BF
:108A80000A685C1E551C0D601370E3B2FF2BF6D113
:108A900003680020187130BC70470E20704700BF7B
:108AA000F0B583B002AB002503F8015D044618461B
:108AB000FEF7A0FAD4E900311A688A4210D9511E93
:108AC00019602168A3680F6812F8015C0A79268A88
:108AD000E068DB1BDBB29A4206FB050538BF0B7171
:108AE0009DF80700FEF7ACFA284603B0F0BD00BFC2
:108AF00030B583B002AB002203F8012D05461846BD
:108B00000C46FEF777FA2A681368591C1160E96869
:108B10002A8A641AB4FBF2F41C709DF80700FEF771
:108B20008FFA03B030BD00BFF0B583B002AB0025B3
:108B300003F8015D044618460F46FEF75BFA23680A
:108B4000A2681E685868904238BF451CAE4213D0D8
:108B50005D6859688A420CD800225A60E2686068F1
:108B6000531E072B46D8DFE803F0423E453145450A
:108B7000451901315960F1E7207C002840D15D683A
:108B800059688A4244D9013159602268A168136842
:108B90008B4234BF013300231360DFE7D7E90023A2
:108BA00000EBC500C0E900232268136850688342C7
:108BB00014D8C31A91689DF80700994238BF936092
:108BC000FEF73EFA0024204603B0F0BD3B6840F8B3
:108BD00025302268136850688342EAD9A1680131C0
:108BE0000144CB1AE6E73B8820F81530DCE73B78F8
:108BF0004355D9E7394605FB02000FF00EFFD3E7D6
:108C00009DF80700FEF71CFA0424204603B0F0BDCF
:108C10005860BAE770B582B002AB002403F8014D8A
:108C2000044618460E461546FEF7E4F9236819680F
:108C30005A6891424DD018682DB91A68A1688A42C5
:108C400038BF551C1D60E2686168531E072B33D87E
:108C5000DFE803F0121C32273232320401EBC0018C
:108C6000D1E900239DF80700C6E90023FEF7E8F9E3
:108C70000024204602B070BD0B5C33709DF80700E5
:108C8000FEF7DEF90024204602B070BD31F8103046
:108C900033809DF80700FEF7D3F90024204602B088
:108CA00070BD51F8203033609DF80700FEF7C8F919
:108CB0000024204602B070BD00FB021130460FF0C8
:108CC000ACFE9DF80700FEF7BBF90024204602B079
:108CD00070BD9DF80700FEF7B3F90524204602B0E9
:108CE00070BD00BF036818685B68C01AB0FA80F0F6
:108CF000400970472DE9F041134DDFF850800F46D1
:108D000005EB4105002401262B5D384653B12B5D50
:108D1000013BDBB22B552B5D9BB958F827301B6804
:108D2000DB69984714B11EB9BDE8F0810124EBE777
:108D3000064B53F8273002215868BDE8F04105F092
:108D4000EDBE0026EEE700BF986A0020203000202C
:108D50002DE9F04F036893F82140022C83B06CD1C9
:108D60004F0016467A1803EB82020D46526896426F
:108D70000446B04665D04168DFF884910A7919F855
:108D80000230DBB2FF2B10D0FE2B63D003F5A873AB
:108D90000968594851F8231050F82230994259D1A6
:108DA000FF2309F8023063681A79FE2309F80230BC
:108DB000D4F800A09AF8200005F078F9002E77D0BA
:108DC000DAF818309E4280F0868005EB450B4FEABA
:108DD0008B0B0AEB0B026068526893423ED0002A6C
:108DE0003CD096423AD20023032105F031FE7B1994
:108DF00061685AF80B0009680AEB830301F5A67154
:108E00009A7A9AF82030CDE90031002A6DD004F02A
:108E1000D5FDDDE900310246184605F009F99AF85A
:108E2000200005F02BF96268334B127909F80250E3
:108E30006268127943F8226014E0082003B0BDE8AC
:108E4000F08FDB6913B1426810799847002003B0B6
:108E5000BDE8F08F112003B0BDE8F08F0379FF2249
:108E600009F8032032467E190AEB860600232946BC
:108E7000606805F0EDFD307A05F000F9707A05F0D4
:108E8000FDF82F440AEB8707C7F804802368DB69E5
:108E9000002BDBD06268194B127903EB42030221ED
:108EA0005955606805F022FE002003B0BDE8F08F40
:108EB00007EB050B0AEB8B0BB0469BF8090005F09E
:108EC000F5F89BF8080005F0D9F863681B79FF22D4
:108ED00009F80320D5E77E190AEB86061FFA83F806
:108EE000307A05F0E3F8707AEDE704F059FDDDE93A
:108EF0000031024690E700BF3C300020986A002015
:108F0000343000202DE9F04F036893F82140022C03
:108F100083B075D11F8B4E000D46044671186A4808
:108F200002FB07F203EB8101A0FB02025209496830
:108F300097B28F4268D06068DFF89881017918F89D
:108F40000130DBB2FF2B11D0FE2B66D003F5A873E6
:108F50000068DFF878C150F823005CF821309842AF
:108F60005BD1FF2308F8013063681979FE2308F804
:108F70000130D4F800901FFA82FA99F8200005F029
:108F800095F8BAF1000F78D0D9F818A0574580F0BD
:108F9000848005EB450B4FEA8B0B09EB0B036068F4
:108FA0005A6892453DD0002A3BD0974239D20023DF
:108FB000032105F04DFD731909EB830361689A7A6B
:108FC000096899F82030019301F5A67A59F80B0049
:108FD000002A73D004F0F2FC019B02461846514669
:108FE00005F026F899F8200005F048F86268374B3C
:108FF000127908F802506268127943F8227014E07E
:10900000082003B0BDE8F08FDB6913B16268107906
:109010009847002003B0BDE8F08F112003B0BDE8F1
:10902000F08F0379FF2208F8032006EB050809EB0F
:10903000880800233A462946606805F009FD98F83B
:10904000080005F01BF898F8090005F017F82E4401
:1090500009EB860677602368DB69002BD9D062684C
:109060001B4B127903EB420302215955606805F04E
:109070003DFD002003B0BDE8F08F771909EB8707AD
:10908000787A05F013F8387A04F0F8FF63681B79F2
:10909000FF22574608F80320D9E7771909EB87071D
:1090A000387A05F003F8787A04F0E8FF63681B79F2
:1090B000FF221FFA8AF708F80320C8E704F070FCC3
:1090C000019B02468AE700BF1F85EB513C30002020
:1090D000986A0020343000202DE9F04F87B0002935
:1090E00000F0B581066896F82130002B40F0B08082
:1090F0000F469046044604F0C9F910B1852840F0A7
:10910000AC8004F069FB002800F0A681D74BD84D55
:109110001B68002203F0F0034FF0FF09303BF272AE
:10912000F2754FF0FF3218BF012386F8209086F8C1
:10913000089086F8099086F8159032603275F260D2
:1091400006F120002B7004F013FF002840F0258268
:10915000D7F800A0BAF1FF3F40F084807B685A1C2A
:1091600040F0F9800DF1100A3B69B3F5805FC0F063
:109170006982B3F5005FC0F06782B3F5804FC0F03D
:109180006582B3F5004FC0F06382B3F5803FC0F055
:109190006182B3F5003FC0F05F82B3F5802FC0F06D
:1091A0005D82B3F5002FC0F05B82B3F5801FC0F085
:1091B0005A81B3F5001F4FF00902C0F0558100231A
:1091C000072160688DF810208DF813108DF811308C
:1091D0008DF812300379A74A0593514605F072FBCA
:1091E0000546002840F0908163683F691B68D3F80A
:1091F0001035DBB2390FC3F120023F0101FA02F250
:10920000DF40203B21FA03F317431F43B761606837
:109210004FF0010905F018FC6068CDF800903A465F
:109220000423022105F032FC6068022105F076FC7F
:10923000C6F81C80636890481B79904A40F8234028
:10924000FF21284686F82190D15407B0BDE8F08F61
:109250000825284607B0BDE8F08F0425284607B04A
:10926000BDE8F08FD4F8009099F82130002B40F041
:10927000098197F808B089F80AB0C9F804300322C8
:1092800023688DF810209B7AB3FA83F301225B09DF
:1092900004A950468DF811308DF81220029204F086
:1092A000A5FA002840F06F81029AC9F800A002FADE
:1092B0000AF24FF0A043BBF1000F40F0A881C3F8C1
:1092C000082509F1080004F053FE002840F05B81F6
:1092D00009F1090004F04CFE002840F0548199F88F
:1092E000080004F0E3FE99F8090004F0DFFEBBF18A
:1092F000000F00F09281D9F8000004F05FFB834674
:10930000D9F8000004F04CFB8246636899F8080025
:1093100019685A4601F5A07104F08AFE636899F84D
:1093200009001968524601F5A47104F081FE012379
:1093300089F80B306368DFF848C193F804E0002334
:109340001A46194620460CF81E30FFF701FD7B68CF
:109350005A1C3FF407AFD4F8009099F82120002A56
:1093600040F0908097F809B089F816B0C9F810203D
:109370002268039303218DF8101092F816C00DF1A6
:10938000100ABCFA8CFC01224FEA5C1C51461846BC
:109390008DF811C08DF81220029204F027FA0028EF
:1093A00040F0F180039B029AC9F80C3002FA03F3F3
:1093B0004FF0A042BBF1000F00F02C81C2F80C3539
:1093C00009F1140004F0D4FD002840F0DC8009F11C
:1093D000150004F0CDFD002840F0D58099F8140068
:1093E00004F064FE99F8150004F060FED9F80C0052
:1093F000BBF1000F00F01C8104F0E0FA0290D9F8F4
:109400000C0004F0CDFA029A8346636899F81400C0
:10941000196801F5A27104F00BFE636899F8150054
:1094200019685A4601F5A47104F002FE012189F879
:1094300017106268124B12794FF0000C03EB4203D5
:109440002046624683F801C0FFF782FC8CE60B25BC
:10945000284607B0BDE8F08F04F07CF900283FF4FF
:1094600055AE0325F5E60822D2B2A8E6E80F00F0D3
:1094700050300020F58C02002030002034300020D5
:10948000986A0020082599F8200004F0ADFD99F8AD
:109490000800FF287BD199F80900FF2804D004F0C8
:1094A000A3FDFF2389F80930D9F80000461C05D038
:1094B00004F020FA4FF0FF33C9F8003099F8140097
:1094C0000023FF2889F80B3004D004F08DFDFF2322
:1094D00089F8143099F81500FF2804D004F084FDB1
:1094E000FF2389F81530D9F80C00411C05D004F091
:1094F00001FA4FF0FF33C9F80C30002389F8173018
:10950000606805F057FAA4E6266896F8200004F093
:109510006BFD307AFF2827D1707AFF282ED1306872
:10952000421C1BD1307D0023FF28F37211D1707DC6
:10953000FF281ED1F068431C05D10023F375606835
:1095400005F038FA85E604F0D5F94FF0FF33F36003
:10955000F3E704F049FDFF233375E8E704F0CAF9A7
:109560004FF0FF333360DDE704F03EFDFF2333723D
:10957000D2E704F039FDFF237375DBE704F034FD17
:10958000FF237372CBE7D4F8009004257BE704F047
:109590002BFDFF2389F808307DE7256895F820002A
:1095A00004F022FD287AFF2803D004F01DFD85F881
:1095B0000890687AFF2803D004F016FDFF236B7231
:1095C0002868461C04D004F095F94FF0FF332B6057
:1095D000287D0023FF28EB7203D004F005FDFF2354
:1095E0002B75687DFF2803D004F0FEFCFF236B750C
:1095F000E868411C04D004F07DF94FF0FF33EB60C4
:109600000023EB75606805F0D5F9042521E6C3F861
:109610000C2556E6C2F80835D2E6D9F8000004F069
:10962000BFF98346D9F8000004F0C8F982466CE619
:1096300004F0B6F90290D9F80C0004F0BFF9029AD0
:109640008346E2E62A78BAE501220DE702220BE71B
:10965000032209E7042207E7052205E7062203E7BC
:10966000072201E7F8B5D0E900531C4E1A79EB7ACE
:109670000027044606F81270B3B96268EB7D1279D0
:1096800006EB420600277770DBB96368144A1B7942
:10969000FF21D154606805F0D7F9606805F0B8F98A
:1096A000022385F82130F8BD03682868997AB1FA59
:1096B00081F1490904F090F9286804F04DF96F60D0
:1096C000DBE72368E868997DB1FA81F1490904F084
:1096D00083F9E86804F040F92F61D6E7986A002022
:1096E000343000202DE9F8430646D0E9007005F03B
:1096F0009DF97068022105F011FA97F8200004F036
:10970000D5FC00253C464FF001094FF0A048E27A15
:109710006B002B4492B13268216802EB830309FA93
:1097200001F19B7A93B9C8F80815206804F026F96E
:10973000207A04F0BBFC607A04F0B8FC0C341DB154
:1097400087F82150BDE8F8830125E0E7C8F80C153B
:10975000EBE700BF10B582B038B1B9B101600B685A
:10976000114602B0BDE8104018470B480B4C0C4B9B
:109770000C4A0D49001BC0080E24000440F00100F3
:109780000094FDF7CFF80E2002B010BD0248034C44
:10979000034B064AEDE700BF18B0030078AF0300A3
:1097A000748B0300288C0300308C03005C8C030056
:1097B0002DE9F04182B0002854D0002A64D0D0F8BE
:1097C00000C0BCF1000F69D01C46002B33D04768A5
:1097D000D7F80480B3FBF8F708FB1737002F3CD10C
:1097E0008F0723D112F0030F53D1C768B94211D2AA
:1097F0003248334C334B344A3449001BC0081024E0
:10980000000440F001000094FDF78CF8204602B0FF
:10981000BDE8F0814E1E05693444AC42E8D8DCF85E
:109820000C40A44602B0BDE8F04160472348244CF8
:10983000244B274AE0E72148214C224B254A234963
:10984000001BC0080924000440F001000094FDF74B
:1098500069F8204602B0BDE8F0811848184C194B51
:109860001D4AECE71548164C164B1C4A1749001BBD
:10987000C0080E24000440F001000094FDF752F8E7
:10988000204602B0BDE8F0810C480D4C0D4B144A47
:10989000ECE70A480A4C0B4B124AADE7084C074864
:1098A000084B114A0949001BC0080824000440F075
:1098B00001000094FDF736F82046A8E718B0030031
:1098C00078AF0300888B03002C8D0300308C0300DD
:1098D000F08C03006C8C0300C48C0300288C030004
:1098E000BC8C0300088D0300B08C0300F0B583B07E
:1098F000002843D0D0F800C0BCF1000F4ED03AB3DE
:109900004768D7F800E00EF1FF370F4231D1C76842
:10991000B94210D229482A4C2A4B2B4A2B49001B0A
:10992000C0081024000440F001000094FCF7FAFF86
:10993000204603B0F0BD4D1E04690EFB0255A54242
:10994000E8D8DCF81040A44603B0BDE8F04060471A
:109950001B4C1A481B4B1E4A1C49001BC0080924FB
:10996000000440F001000094FCF7DCFF204603B047
:10997000F0BD1248124C134B164ACFE7104C0F485B
:10998000104B154A1149001BC0080E24000440F07A
:1099900001000094FCF7C6FF2046CAE7084C0748C0
:1099A000084B0E4A0949001BC0080824000440F077
:1099B00001000094FCF7B6FF2046BAE718B0030098
:1099C00078AF03009C8B0300D88B0300308C03001E
:1099D0006C8C0300B08B0300288C0300B08C030058
:1099E00029DF704728DF704708467047002070471E
:1099F000024B187A003018BF01207047F030002069
:109A0000034B187A0122B0FA80F05A74400970476B
:109A1000F030002008B510461A460EF0FEFF002078
:109A200008BD00BF08B51422002104480FF000F85B
:109A30000348FEF795FE002008BD00BFF03000206F
:109A4000E030002010B5094C094B43602046FEF77A
:109A5000E7FF40B90DF092FB1C2320748C220549CE
:109A60000548FEF765FE002010BD00BFF030002065
:109A7000648D030054300020E030002030B55E4C8F
:109A8000237A87B0002B3AD05C4B1B6802222272EB
:109A90001A79002A3ED0012A0CD1D3E903021044DE
:109AA000FFF7A0FF002849D0112803D1012323721A
:109AB00007B030BD19688A68C2B1002268460092BA
:109AC000C0E902220325026101959A6805921A797C
:109AD000002A4BD0012A07D102228DF80020DA6833
:109AE000120302925B6904938B68984700234449F0
:109AF000444823726360FEF7BFFE07B030BD4049A3
:109B00004048FEF78BFE3D4A034610600028BDD159
:109B10006060F2E7D3E90525521BB2F5805F28BFEC
:109B20004FF48052D3E903109208012A38BF012272
:109B300029442844FFF754FF0028B5D1227C002A8D
:109B4000DBD1227A002AD8D0022A0AD1E0601A7921
:109B5000DAB1012A05D1D3E9042101328A421A611E
:109B60001FD0637C73B10DF0F9FAC6E701228DF8BE
:109B700000201A690292DA6803925B6904938B6889
:109B80009847B3E7FFF77AFFB7E7D3E90512881ADA
:109B9000B0F5805F94BF121802F5805291429A612D
:109BA000DFD10022227219688868A8B16846009245
:109BB000C0E90122C0E903229A6805921A7982B1AC
:109BC000012A07D102228DF80020DA6812030292DE
:109BD0005B6904938B68984709490A48FEF74CFE75
:109BE000BFE701228DF800201A690292DA68039219
:109BF0005B690493EEE700BFF030002008310020DD
:109C000004310020E03000202DE9F04782B0824688
:109C10008946174801A990461F46FEF7C3FD10B3B9
:109C2000044600211C220D46124E0EF001FF0A9B35
:109C3000C4F800A0A360C4E90389676101A9257184
:109C40000B48FEF7DBFD301DFEF7EAFE38B9747CE9
:109C500034B9FFF713FF204602B0BDE8F08728466D
:109C600002B0BDE8F087042002B0BDE8F08700BF75
:109C7000E0300020F03000202DE9F04383B0814631
:109C80000D46164801A917469846FEF78BFD08B306
:109C900004461C2200210EF0CBFE114EC4F80090A9
:109CA00001232D0BC4E90285676101A923710B48CB
:109CB000FEF7A4FD301DFEF7B3FE38B9747C34B94D
:109CC000FFF7DCFE204603B0BDE8F083002003B0C0
:109CD000BDE8F083042003B0BDE8F083E03000204D
:109CE000F030002000F0FD03012B00D0704730B5AC
:109CF000604CA0F10100B0FA80F0237A4009002204
:109D000087B020746274002B3AD05B4B1B68022230
:109D100022721A79002A3ED0012A0CD1D3E903021B
:109D20001044FFF75FFE002849D0112803D101231A
:109D3000237207B030BD19688A68C2B10022684634
:109D40000092C0E902220325026101959A680592FA
:109D50001A79002A4BD0012A07D102228DF800205F
:109D6000DA68120302925B6904938B6898470023B8
:109D70004249434823726360FEF77EFD07B030BD61
:109D80003E493F48FEF74AFD3B4A03461060002823
:109D9000BDD16060F2E7D3E90525521BB2F5805FC3
:109DA00028BF4FF48052D3E903109208012A38BF2C
:109DB000012229442844FFF713FE0028B5D1227C54
:109DC000002ADBD1227A002AD8D0022A0AD1E06008
:109DD0001A79CAB1012A05D1D3E9042101328A4294
:109DE0001A611DD0637C63B10DF0B8F9C6E701229A
:109DF0008DF800201A690292DA6803925B69049375
:109E0000B3E7FFF73BFEB9E7D3E90512881AB0F5CF
:109E1000805F94BF121802F5805291429A61E1D19D
:109E20000022227219688868A8B168460092C0E9C9
:109E30000122C0E903229A6805921A7982B1012AA7
:109E400007D102228DF80020DA68120302925B69C2
:109E500004938B68984709490948FEF70DFDC1E74F
:109E600001228DF800201A690292DA6803925B6978
:109E70000493EEE7F0300020083100200431002088
:109E8000E0300020831E012B00D9704730B58E4C86
:109E9000237A87B0002B31D0022B2BD103286BD132
:109EA000E3680133082B79D9884B00221B68E260F4
:109EB00022720D2519688A68C2B100226846009294
:109EC000C0E90222026101959A6805921A79002A76
:109ED00000F0B980012A07D102228DF80020DA684B
:109EE000120302925B6904938B689847784979481A
:109EF000FEF7C2FC637C1BB10DF030F907B030BD3A
:109F0000237A002B5BD0714B1B68022222721A79D4
:109F1000002A5FD0012A0BD1D3E903021044FFF7D6
:109F200061FD002869D0112802D101232372E5E7E1
:109F300019688A68C2B1002268460092C0E902220C
:109F40000325026101959A6805921A79002A70D05A
:109F5000012A07D102228DF80020DA68120302924A
:109F60005B6904938B6898470023594959482372C9
:109F70006360FEF781FCC1E7544B00221B68E2607E
:109F80001A796AB1012AB5D1D3E9042101328A4292
:109F90001A6111D0637C002BAED1B4E7E360F9E71E
:109FA000D3E90512881AB0F5805F94BF121802F544
:109FB000805291429A61EDD1002525727AE7444999
:109FC0004448FEF72BFC414A0346106000289CD110
:109FD000606093E7D3E90525521BB2F5805FD3E9B2
:109FE000031028BF4FF480529208012A38BF012283
:109FF00029442844FFF7F4FC93E7227C002A7FF4ED
:10A000007DAF227A002A3FF479AF022A0AD1E060BC
:10A010001A7912B3012A05D1D3E9042101328A4207
:10A020001A6126D0637C002B7FF466AFFFF726FD14
:10A0300064E701228DF800201A690292DA6803921F
:10A040005B6904938EE701228DF800201A69029261
:10A05000DA6803925B69049346E7D3E90512881A2C
:10A06000B0F5805F94BF121802F5805291429A6158
:10A07000D8D10022227219688868A8B16846009277
:10A08000C0E90122C0E903229A6805921A7982B1D7
:10A09000012A07D102228DF80020DA681203029209
:10A0A0005B6904938B68984709490A48FEF7E4FB0B
:10A0B000B8E701228DF800201A690292DA6803924B
:10A0C0005B690493EEE700BFF03000200831002008
:10A0D00004310020E0300020FEF7C6BC2DE9F0413D
:10A0E000058ACE1C043D2E440746B6FBF5F6FEF766
:10A0F000D7FC78B3F6B24FF48073013E0446C580B6
:10A100000760838027D08046002509E06379AE424E
:10A1100003F101036371C8F80000076080461AD09C
:10A120003846FEF7BDFC01350028EFD16679721E76
:10A1300014D02346013082421B68FBD11F684EB108
:10A14000002523682146013538461C46FEF7D0FC21
:10A15000AE42F6D100242046BDE8F0812768EFE743
:10A16000F8B546790146701E11D00A460023013326
:10A1700098421268FBD1176846B100240D6801347B
:10A180003846FEF7B5FCA6422946F7D1F8BD0F6860
:10A19000F3E700BF04300121FEF72ABCF8B5012126
:10A1A00004460430FEF730FCC0B200B1F8BD667959
:10A1B000721E12D02346013082421B68FBD11F68F9
:10A1C000002EF3D0002523682146013538461C4671
:10A1D000FEF78EFCAE42F6D1F8BD2768F2E700BF6D
:10A1E0002DE9F843C788467907FB06F6043E02EBE3
:10A1F000030C0446664503F1040015468846B0FB8F
:10A20000F7F238BFF51A07FB120012B1013A2468C1
:10A21000FCD13E1AAE4228BF2E469DB14FF0000938
:10A220000430AD1B2044324608EB09010EF0F5FB6B
:10A23000AF42B14424683E464FF0000028BF2E468E
:10A24000002DEDD1BDE8F8832DE9F843C7884679A4
:10A25000154607FB06F6043E05EB030C1A1D664582
:10A2600004468846B2FBF7F038BFF51A07FB102109
:10A2700010B101382468FCD17E1AAE4228BF2E46A8
:10A280009DB14FF0000904312144AD1B324608EB6B
:10A2900009000EF0C2FBAF42B14424683E464FF0C5
:10A2A000000128BF2E46002DEDD1BDE8F88300BF88
:10A2B00001600B6843604A68934204BF0023436017
:10A2C000704700BF436843B1026891680B44436024
:10A2D0005268934204BF00234360704730B4184D66
:10A2E000A5F59472AB1ADB1003EBD3735B1002EB92
:10A2F000C30152F83330984228BF0C4605D311E011
:10A3000052F8333098420CD221468B1ADB1003EB03
:10A31000D3735B108A4202EBC304F1D3094830BC0B
:10A3200070470D46984204D904F10802AA42D9D3D5
:10A33000F4E76068034B002808BF1846EFE700BF4A
:10A34000CC8E0300908D0300C0B2002348700B70C8
:10A35000704700BF2DE9F04F89B008AF002307F820
:10A36000143D04460E4638462568FCF743FE4EB9B8
:10A3700023681B6833B19DF80C00FCF761FE09B03F
:10A38000BDE8F08F4FF0000B002229466068FEF711
:10A3900041FC40B100232B609DF80C00FCF750FEFF
:10A3A00009B0BDE8F08F9DF80C00FCF749FE2B6862
:10A3B0001B69002B64D02B681E6968691022314626
:10A3C0000EF01CFB04F1080904F10C08002849D127
:10A3D00085F818B021680B7E0A68DBB21EB292685D
:10A3E000F00002EB000C52F836E09CF806209CF8D6
:10A3F00005609CF8049012F0010F4FEA560C2ED025
:10A4000016F001060ED1D1F800A09AF80CA0013385
:10A41000534507DA0B689B68083003445B79BCEB53
:10A42000530F3AD05201002302F020029A464046D0
:10A4300039468DF80C608DF80DC0CDE90493CDE957
:10A4400006EA04F031FE002899D0226813681B68E0
:10A45000C3B938468DF80C30FCF7CCFD94E706F014
:10A460000106DFE7404604F0B9FD2346194A3146AC
:10A47000484603F039F8404604F006FE6E61A7E74F
:10A480002E1D9AE71168136849681B68984738467B
:10A490008DF80CB0FCF7AEFD76E70A680B7ED2F8BB
:10A4A00008A00AEB000201335679019393791279DF
:10A4B00000925AF800A09DF80400087616F0010FEB
:10A4C0004FEA431303F020020CBF03260226009B31
:10A4D000ADE700BFD9A402002DE9F04100780B6878
:10A4E00086B00C46A8B91A7E19680132097BD2B22F
:10A4F000914210D81A68126822B11A681B68516814
:10A500001B68984720460121FFF724FF06B0BDE8ED
:10A51000F0810320EEE71A76D4F800C09CF81830DA
:10A52000DCF80020DBB218B292684FEAC00E02EBF2
:10A530000E0152F830608A7948790F79D1074FEAD5
:10A5400050052DD510F001002CD1DCF80010097B4E
:10A5500001338B4226DADCF800309B680EF1080EDE
:10A5600073445B79B5EB530F1CD1DCF800309CF8D9
:10A570001810986800EB0E03013193F805809A7962
:10A5800050F80EE01B7918F0010F4FEA4212C9B2E1
:10A590000CBF0320022002F020028CF8181006E005
:10A5A00000F001005201002302F020029E468DF8C7
:10A5B000040001A904F10C008DF80550CDE90273E7
:10A5C000CDE9046E04F070FD00289FD0236891E768
:10A5D00070B5034604460C4A08300E4602F084FF6C
:10A5E000054670B904F10C0004F04EFD23681D60AF
:10A5F00096E80F002668043686E80F0023681A1DC7
:10A600005A61284670BD00BFD9A4020070B588B059
:10A6100008AC03AE44F8186D0592154A079105463B
:10A62000002621468DF81830012401AB4068ADF8B2
:10A630000460CDE903238DF804400C9CFEF774FA06
:10A6400008B108B070BD01462846FFF783FE44B943
:10A650009DF80430002BFBD19DF80500C0B208B076
:10A6600070BD9DF80430002BF6D0A047EFE700BF87
:10A6700049A3020030B4904B1B78062B20D08F4B9F
:10A680001B68062B00F085808D4AD2F8883043F491
:10A690007003C2F88830BFF34F8FBFF36F8F4FF056
:10A6A0001023D3F80022002AC0F28681D3F80432A6
:10A6B000002BC0F28181834B834A1A6030BC704703
:10A6C000824B1B681D07DAD1814B1B6803F0F00237
:10A6D000302A00F09E8003F0E003402B00F09980C8
:10A6E0007B4B1B6803F0F003302B00F0B980784BF4
:10A6F0001B6803F0F002302A56D003F0E003402B31
:10A7000052D0734B1B6803F0F003302B00F0B6807F
:10A710006F4B1B6803F0F002302A66D003F0E003B1
:10A72000402B62D06A4B1B6803F0F003302B00F023
:10A73000B580674B1B6803F0F003302B79D0644B76
:10A740001B6803F0F003502B00F0E480604B1B68A3
:10A7500003F0F002302A37D003F0E003402B33D06F
:10A760005B4B1B6803F0F002302A03D003F0E003D8
:10A77000402B84D14FF08043D3F80024D20744BF4C
:10A780006FF00102C3F800244C4B1B68062B7FF4CA
:10A790007BAF504B1B68062B7FF476AF4E4A136895
:10A7A00043F4806313606FE74C4B434A1B68127895
:10A7B0004B49C3F34233062A0B6048D1434B1B6815
:10A7C00019077FF45CAF9CE7464A3B4B12681B7845
:10A7D000454902F04F02062B0A607FF450AF3B4B15
:10A7E0001B6819077FF44BAFBAE74FF08043002294
:10A7F000C3F80C21C3F81021C3F838252E4B1B7861
:10A80000062B7FF43CAF314B1B681B077FF437AF3F
:10A8100088E7364B284A1B6812783549C3F304236E
:10A82000062A0B60EAD1294B1B681C077FF427AF6F
:10A8300056E7304C204A304912783048304B0525D5
:10A84000256001250D6000243F2104601960062A5F
:10A850007FF415AF1D4B1B681C077FF410AF6EE72C
:10A86000154B284A1B7828491160062B7FF407AF47
:10A87000164B1B6818077FF402AF38E723490E4BCD
:10A88000CA681B7822F08072062BCA607FF4F7AE8C
:10A890000E4B1B681A077FF4F2AE39E7064B1C4AD1
:10A8A0001B780321062B11607FF4E9AE074B1B6870
:10A8B0001D077FF4E4AE3CE7E00F00F0300100102C
:10A8C00000ED00E0F02200200090D003E40F00F043
:10A8D000E80F00F0340100103C1700404402001063
:10A8E0003C05004058020010E40E00402403001014
:10A8F0004035014010560040885600401856004030
:10A900001456004074C007400DF0ADBAF0ED00E001
:10A91000A00500404FF08053404AD3F80414C2F819
:10A920002015D3F80814C2F82415D3F80C14C2F873
:10A930002815D3F81014C2F82C15D3F81414C2F843
:10A940003015D3F81814C2F83415D3F81C14C2F813
:10A950004015D3F82014C2F84415D3F82414C2F8D3
:10A960004815D3F82814C2F84C15D3F82C14C2F8A3
:10A970005015D3F83014C2F85415D3F83414C2F873
:10A980006015D3F83814C2F86415D3F83C14C2F833
:10A990006815D3F840142248C2F86C15D3F8441453
:10A9A0000378C2F87015062B7FF469AE1D4B1B6847
:10A9B00018077FF464AEC9E61B4B0122C3F80425D7
:10A9C000D3F80024002AFBD04FF01023152216499B
:10A9D000C3F80022D1F80034002BFBD04FF0102236
:10A9E0001521114BC2F80412D3F80024002AFBD021
:10A9F00000220D49C3F80425D1F80034002BFBD008
:10AA0000BFF34F8F09490A4BCA6802F4E06213434F
:10AA1000CB60BFF34F8F00BFFDE700BF00C0004019
:10AA2000E00F00F0E40F00F000E0014000ED00E076
:10AA30000400FA0510B5182000F00AF8044620B109
:10AA4000002340F8043B00F0EFF8204610BD00BFA3
:10AA50002DE9F843044601F0E9FB454A1568002D4D
:10AA600041D0444B1E68344236D1002C34D004F11E
:10AA700008014B071CBF21F00701083161B3DFF863
:10AA800008C1DCF800708F4226D33B48036803E01E
:10AA90001A6822B1184613465A688A42F8D3AB4264
:10AAA0001AD01A6802605868421A102A03F108087E
:10AAB00037D8324C21683F1A8F4240EA06004FF0E7
:10AAC0000001C3E90010CCF8007038BF276001F026
:10AAD00059FC4046BDE8F8834FF0000801F052FCF5
:10AAE0004046BDE8F883264B264D244F224E590799
:10AAF00018BF073325F0070518BF23F007032249C5
:10AB000015601846EB1A3B600B601A4F0021C6E92E
:10AB100000014FF00046C5E900113E60C0E9005356
:10AB2000A1E75818144C4260596000E014462268AE
:10AB30009042FBD8D4F804E0416804EB0E09484584
:10AB400012D000EB010E724505D00260844218BF9E
:10AB500020605868ADE7AA42F7D0526811444160BE
:10AB6000226812680260F1E7714461602046E8E7FC
:10AB70000C310020105D00201C5D0020185D0020BD
:10AB800010310020085D0020145D002050B138B560
:10AB90001E4A50F8043C1268134202D050F8081CB8
:10ABA00009B138BD704723EA020340F8043C04466B
:10ABB00001F03CFB164854F8041C0368154A0B448A
:10ABC0000360A4F1080000E01A4613689842FBD81D
:10ABD00054681519A8420AD04418A3420BD0036048
:10ABE000824218BF1060BDE8384001F0CBBB214461
:10ABF00051601046F0E7084C2468A342EFD05B6830
:10AC00001944416013681B680360E9E7105D002088
:10AC1000145D00201C5D00200C310020014B1868E1
:10AC2000704700BF145D002000F108034FF0FF31B2
:10AC30000022816002604360C0E90333704700BFB7
:10AC400000230361704700BF43684B609A688A60C5
:10AC50009A68516099600861036801330360704726
:10AC600030B40D686B1C11D000F1080200E01A46E8
:10AC700053681C68AC42FAD94B6099608A60516095
:10AC8000086103680133036030BC70470269536890
:10AC9000F2E700BFD0E9012103699160D0E9011218
:10ACA00051605A68824204BF82685A600022026181
:10ACB0001A68013A1A601868704700BF07480068B0
:10ACC00080F3088862B661B6BFF34F8FBFF36F8F12
:10ACD0004FF4F07080F3118800DF00BF00600200C5
:10ACE000064B19680868B0E8F04F80F30988BFF395
:10ACF0006F8F4FF0000080F311887047285D0020AF
:10AD0000EFF30980BFF36F8F144B1A681EF0100F1A
:10AD100008BF20ED108A20E9F04F10604DF8043D87
:10AD20004FF0400080F31188BFF34F8FBFF36F8F58
:10AD300001F0DCFC4FF0000080F3118808BC1968BA
:10AD40000868B0E8F04F1EF0100F08BFB0EC108A92
:10AD500080F30988BFF36F8F704700BF285D002024
:10AD6000402383F31188FEE730B46FF002034FF005
:10AD70008075074C40F8081C40F8202C40F8045C13
:10AD800040F80C4C40F8243C30BC4438704700BFBD
:10AD900061AD02000F4C08B5E02384F8223000F0CA
:10ADA0005FF80D4B0D4A00211960D4F8883043F448
:10ADB0007003C4F88830536843F0404353602369FC
:10ADC00043F010032361FFF779FF402383F31188D9
:10ADD000FEE700BF00ED00E0245D002030EF00E062
:10ADE000402383F31188024A1368013313607047CC
:10ADF000245D0020034A1368013B13600BB983F301
:10AE000011887047245D002041DF704710B5104B5A
:10AE1000002282B01A601B680193019BEFF311843A
:10AE2000402383F311880B4B0B49D1F804151A60AA
:10AE30001B680093009B01F015FA20B1074B4FF0FF
:10AE400080525A6040BF84F3118802B010BD00BF29
:10AE500040110140001101400010014000ED00E0F0
:10AE600038B5002002F0DCFA0A4B0B480B490122EE
:10AE70001F24C3F808450225C3F80423E024026018
:10AE80004FF400301A60C3F8445381F8114308604E
:10AE900038BD00BF001001400810014000E100E093
:10AEA000F0B5074685B0EFF3108272B63D4CA3684B
:10AEB00083B93D4B3D480121A160D3F8801001408A
:10AEC0002160C3F88000D3F8841061604FF0FF3137
:10AED000C3F8841002B962B6354DD5F8046501F0A7
:10AEE0007FFD002837D0334B334A9F4294BFF3197C
:10AEF000F3180121C5F8081323F07F430021C5F89A
:10AF000040351160136801934FF48033019AC5F8FE
:10AF10000433BFF34F8F002F30D1254B2648274AEB
:10AF20004FF48031C3F808130021016000680390DA
:10AF3000039811601268029201220299C3F8042357
:10AF4000D3F80405184B801B4FF4003230F07F40DB
:10AF5000C3F880210FD1A3685BB1EFF3108272B602
:10AF6000114B21681960616859600023A36002B920
:10AF700062B605B0F0BD01F06DF9ECE70CF0FEF83B
:10AF800040B9094B20BFD3F80011D3F804210A437C
:10AF9000F8D0C2E7FFF738FF0028BED0FBF7A0FECD
:10AFA000BBE700BF8C6A002000E100E0FC06FFBDAB
:10AFB00000100140F5FFFF00401101400011014069
:10AFC00070B506460D4651B100FB01F04830FFF761
:10AFD0003FFD044658B300F14803036005E04820F4
:10AFE000FFF736FD044610B32460C4E90F65FFF790
:10AFF000F7FED4E90F132268A26001FB03F1CB1A1C
:10B00000134400200A44FF21A063E36084F8441045
:10B01000626084F8451004F11000FFF705FE04F1AA
:10B020002400FFF701FEFFF7E5FE204670BD002477
:10B03000204670BD2DE9F04F044685B01D460192B3
:10B040008846FFF7CDFEA26BE36BA84F4FF00009D7
:10B050009A424E46C0F08B80022D00F00681019886
:10B06000002800F03081B9F1000F00F09580FFF763
:10B07000C1FE01F0DBF8FFF7B3FE94F84430FF2B7C
:10B0800008BF84F8446094F84530FF2B08BF84F86B
:10B090004560FFF7AFFE01A902A801F063FC00289C
:10B0A00040F01881FFF79CFEA26BE36B9A4277D0C9
:10B0B000FFF7A0FEFFF794FE94F845304FFA83FAAD
:10B0C000BAF1000F1ADD636AC3B104F1240907E085
:10B0D0000AF1FF33DBB24FFA83FA7BB1636A6BB1DB
:10B0E000484601F0E5FB0028F2D001F073FC0AF1BC
:10B0F000FF33DBB24FFA83FA002BEFD1FF2384F842
:10B100004530FFF777FEFFF76BFE94F844304FFAB7
:10B1100083FABAF1000F1ADD2369C3B104F11009F3
:10B1200007E00AF1FF33DBB24FFA83FA7BB1236900
:10B130006BB1484601F0BCFB0028F2D001F04AFC9C
:10B140000AF1FF33DBB24FFA83FA002BEFD1FF2372
:10B1500084F84430FFF74EFE01F014F9FFF740FE8B
:10B16000A26BE36B9A424FF00109BFF475AF226CFA
:10B17000A66B002A40F0FC8025680136002D00F007
:10B180001881A663636A002B40F08C80FFF732FEC3
:10B19000012005B0BDE8F08F02A801F0D7FB66E7FB
:10B1A00004F11009FFF726FE4846019901F0E2FA82
:10B1B000FFF716FE94F845A04FFA8AFABAF1000F8D
:10B1C0001CDD636AD3B104F1240B08E00AF1FF3AF5
:10B1D0005FFA8AF34FFA83FA83B1636A73B1584610
:10B1E00001F066FB0028F1D00AF1FF3A01F0F2FB12
:10B1F0005FFA8AF34FFA83FA002BEED1FF2384F82B
:10B200004530FFF7F7FDFFF7EBFD94F844304FFAB8
:10B2100083FABAF1000F06DC15E00AF1FF33DBB266
:10B220004FFA83FA7BB123696BB1484601F040FBCA
:10B230000028F2D001F0CEFB0AF1FF33DBB24FFA67
:10B2400083FA002BEFD1FF2384F84430FFF7D2FDBF
:10B2500001F098F8002881D14FF080537B6040BF07
:10B26000BFF34F8FBFF36F8F78E7226CA66B002A76
:10B2700082D04146E0680DF0D0FB236CE268216883
:10B280005B421A448A42E26080F08980626813441B
:10B29000E360022D00F083800136A663636A002B11
:10B2A0003FF474AF04F1240001F002FB00283FF4E6
:10B2B0006DAF0E4B4FF080525A6040BFBFF34F8FBF
:10B2C000BFF36F8F62E70090FFF794FD009805B021
:10B2D000BDE8F08FFFF784FD94F845506DB2002D66
:10B2E00018DD636AB3B104F1240607E000ED00E065
:10B2F000013DEBB25DB26BB1636A5BB1304601F008
:10B30000D7FA0028F4D0013D01F064FBEBB25DB246
:10B31000002BF1D1FF2384F84530FFF76BFDFFF7D9
:10B320005FFD94F844506DB2002D16DD2369A3B182
:10B3300004F1100605E0013DEBB25DB26BB123698B
:10B340005BB1304601F0B4FA0028F4D0013D01F0C1
:10B3500041FBEBB25DB2002BF1D1FF2384F8443006
:10B36000FFF748FD01F00EF8002005B0BDE8F08FB2
:10B3700041465DBBA0680DF050FBA368216C62687C
:10B380000B44934206F10106A360FFF4FAAEA663F4
:10B39000636A2268A260002B3FF4F8AE82E7002EB9
:10B3A0007FF4EFAE0123A363636A002B3FF4EEAE9C
:10B3B00078E7606801F094FBA663636A6560002B20
:10B3C0007FF470AF00287FF474AFDFE6E0680DF023
:10B3D00024FB236CE26821685B421A448A42E260E3
:10B3E000BFF457AF52E700BF70B54820FFF730FBFE
:10B3F000044650B3002501232060C0E90F35FFF754
:10B40000EFFCD4E90F322168A56303FB02F39A1A1B
:10B410000A440B44FF26C4E90131E26084F8446029
:10B4200004F1100084F84560FFF7FEFB04F12400EE
:10B43000FFF7FAFBFFF7DEFCC4E90055E5602B4699
:10B440002A4629462046FFF7F5FD204670BD00BF7D
:10B450002DE9F0418C4682B004461746EFF3118681
:10B46000402282F31188806BE26B904221D3022B41
:10B4700005D0002086F3118802B0BDE8F08194F871
:10B480004550226CD4F838806DB252BB236808F165
:10B490000108002B4FD06B1CC4F8388037D0013521
:10B4A0006DB284F84550012086F3118802B0BDE8E2
:10B4B000F08194F84550226CD4F838806DB2002A9F
:10B4C000E4D073B9A0680DF0A8FAA368216C626893
:10B4D0000B44934208F10108A360DCD32368A36006
:10B4E000D9E76146E06801930DF097FA206CE268B5
:10B4F0002168019B404202448A42E26002D26268B3
:10B500001044E060022B10D008F10108C3E7636A21
:10B51000002BC8D004F1240001F0CAF90028C2D0E1
:10B52000002FC0D001203860A4E7B8F1000F08BF99
:10B530004FF00108AFE76068019301F0D1FA019B79
:10B540006360A8E738B5EFF31184402383F31188D3
:10B55000826BC36B93420ED990F8453001325BB2D7
:10B5600082635A1C0BD001335BB280F84530012056
:10B5700084F3118838BD002084F3118838BD436AF4
:10B58000002BF4D024300D4601F092F90028EED0C3
:10B59000002DECD001202860EAE700BF2DE9F0473C
:10B5A000044684B088460192FFF71AFCD4F838901C
:10B5B000B9F1000F40F09380019B002B00F00A814D
:10B5C00002A801F0C3F9B34F4E4604F12405FFF77A
:10B5D00011FC00F02BFEFFF703FC94F84430FF2B26
:10B5E00008BF84F8446094F84530FF2B08BF84F806
:10B5F0004560FFF7FFFB01A902A801F0B3F900289D
:10B6000040F08780FFF7ECFBA36B002B40F0E88055
:10B61000FFF7F0FB0199284601F0ACF8FFF7E0FBDB
:10B6200094F845304FFA83F9B9F1000F06DC15E0C4
:10B6300009F1FF33DBB24FFA83F97BB1636A6BB177
:10B64000284601F035F90028F2D001F0C3F909F1DC
:10B65000FF33DBB24FFA83F9002BEFD1FF2384F8DD
:10B660004530FFF7C7FBFFF7BBFB94F844304FFAB8
:10B6700083FABAF1000F1ADD2369C3B104F110098E
:10B6800007E00AF1FF33DBB24FFA83FA7BB123699B
:10B690006BB1484601F00CF90028F2D001F09AF99C
:10B6A0000AF1FF33DBB24FFA83FA002BEFD1FF230D
:10B6B00084F84430FFF79EFB00F064FE00287ED142
:10B6C0004FF080537B6040BFBFF34F8FBFF36F8F4E
:10B6D000FFF786FBD4F83890B9F1000F76D0226CD2
:10B6E00052B1E168636811449942E16024BF216866
:10B6F000E16040460DF091F909F1FF33A36323693E
:10B70000002B40F0C980FFF775FB012004B0BDE8B5
:10B71000F087FFF765FB94F845304FFA83F9B9F1EC
:10B72000000F06DC15E009F1FF33DBB24FFA83F9B5
:10B730007BB1636A6BB1284601F0BAF80028F2D0F9
:10B7400001F048F909F1FF33DBB24FFA83F9002B1E
:10B75000EFD1FF2384F84530FFF74CFBFFF740FBA8
:10B7600094F844304FFA83FABAF1000F1ADD2369D6
:10B77000C3B104F1100907E00AF1FF33DBB24FFA5D
:10B7800083FA7BB123696BB1484601F091F8002838
:10B79000F2D001F01FF90AF1FF33DBB24FFA83FA5E
:10B7A000002BEFD1FF2384F84430FFF723FB00F098
:10B7B000E9FDFFF715FBA36B63B1FFF71BFBFFF779
:10B7C0000FFBD4F83890B9F1000F88D1019B002B02
:10B7D0007FF4FDAEFFF70EFB002004B0BDE8F0875C
:10B7E000FFF708FBFFF7FCFA94F845304FFA83F9AE
:10B7F000B9F1000F06DC15E009F1FF33DBB24FFAB7
:10B8000083F97BB1636A6BB1284601F051F80028D7
:10B81000F2D001F0DFF809F1FF33DBB24FFA83F920
:10B82000002BEFD1FF2384F84530FFF7E3FAFFF751
:10B83000D7FA94F844304FFA83FABAF1000F1ADDC0
:10B840002369C3B104F1100907E00AF1FF33DBB249
:10B850004FFA83FA7BB123696BB1484601F028F8AF
:10B860000028F2D001F0B6F80AF1FF33DBB24FFA4C
:10B8700083FA002BEFD1FF2384F84430FFF7BAFAA4
:10B8800000F080FDFFF7ACFAD4F83890B9F1000F62
:10B890009CD024E700ED00E004F1100001F008F86E
:10B8A00000283FF430AF054B4FF080525A6040BF44
:10B8B000BFF34F8FBFF36F8F25E700BF00ED00E0B0
:10B8C0002DE9F043044685B000260191FFF788FA80
:10B8D000A36BB24FB0463546002B40F0F380019B7E
:10B8E000002B00F05D81B8F1000F00F0FC80FFF745
:10B8F00081FA00F09BFCFFF773FA94F84430FF2BB9
:10B9000008BF84F8445094F84530FF2B08BF84F8F2
:10B910004550FFF76FFA01A902A801F023F80028AB
:10B920006CD1FFF75DFAA36B002B40F0E080FFF7CE
:10B9300061FA2368002B00F03C8104F12409484699
:10B94000019900F017FFFFF74BFA94F845304FFAD2
:10B9500083F8B8F1000F06DC15E008F1FF33DBB225
:10B960004FFA83F87BB1636A6BB1484600F0A0FFE1
:10B970000028F2D001F02EF808F1FF33DBB24FFAC5
:10B9800083F8002BEFD1FF2384F84530FFF732FA1C
:10B99000FFF726FA94F844304FFA83F8B8F1000F15
:10B9A0001ADD2369C3B104F1100907E008F1FF3380
:10B9B000DBB24FFA83F87BB123696BB1484600F0E4
:10B9C00077FF0028F2D001F005F808F1FF33DBB271
:10B9D0004FFA83F8002BEFD1FF2384F84430FFF7B0
:10B9E00009FA00F0CFFC002864D14FF080537B604F
:10B9F00040BFBFF34F8FBFF36F8F5BE0FFF7F0F9EE
:10BA000094F845304FFA83F8B8F1000F1ADD636AF5
:10BA1000C3B104F1240907E008F1FF33DBB24FFAA8
:10BA200083F87BB1636A6BB1484600F041FF0028A0
:10BA3000F2D000F0CFFF08F1FF33DBB24FFA83F80A
:10BA4000002BEFD1FF2384F84530FFF7D3F9FFF740
:10BA5000C7F994F844304FFA83F8B8F1000F1ADDB3
:10BA60002369C3B104F1100907E008F1FF33DBB229
:10BA70004FFA83F87BB123696BB1484600F018FF99
:10BA80000028F2D000F0A6FF08F1FF33DBB24FFA36
:10BA900083F8002BEFD1FF2384F84430FFF7AAF995
:10BAA00000F070FCFFF79CF9A36B002B00F08A807C
:10BAB000FFF7A0F9FFF794F9A36B4FF00108002BF3
:10BAC0003FF40DAF2268013BA363002A00F09E8083
:10BAD0002369002B40F08980FFF78CF9012630465E
